:02000004080AE8
:1000000000000A08A4300A080000060006000501E6
:080010000402E80500000000F5
:040018002C2D0A0879
:10001C0009480A4908B5884205D0094A824202D0EB
:10002C00121A02F0FFFD0748074A0021121A02F0CB
:10003C0004FE064808BD00BF0000002014300A086A
:10004C006800002068000020200A0020200A002000
:10005C0070B502F0A5F8074B074C1E46E41AA4082D
:10006C000025A54204D056F8253098470135F8E70D
:10007C0070BD00BFD02F0A0804300A0800F01AB86F
:10008C0008B500F0DFFBBDE8084002F04BB801F00A
:10009C0061BF0078B0FA80F040097047012303700B
:1000AC00704710B50446006808B101F053FF2046B4
:1000BC0010BD000008B50321002002F0A5FB0321B0
:1000CC00012002F0A1FB0321022002F09DFB032181
:1000DC00084602F099FB0321042002F095FB0C4822
:1000EC0000F070FC0A4800F0A3FC00231946094AF2
:1000FC0042F823100133B3F5807FF9D1064A13601F
:10010C00064B08221A60064B00221A6008BD00BF7D
:10011C0078040020780000206C0000207000002083
:10012C008C040020F7B52D4D00232D4E2D4F2B6048
:10013C002968FF294CDC102391FBF3F313F0010F1A
:10014C0056F821C04FF47A7016D19CFBF0F49CFB4E
:10015C00F7F294FBF0F392FBF0FE00FB134300FB71
:10016C001E2200FB14C0C0B20090DBB2D2B289B226
:10017C001D4801F017FD27E09CFBF0F29CFBF7F407
:10018C0092FBF0F300FB132394FBF0F200FB124202
:10019C00164C01F10F0E0C40002CBCBF04F1FF34C7
:1001AC0064F00F044FF47A70B8BF0134AEEB440125
:1001BC009CFBF0FE00FB1EC0C0B20090DBB2D2B2C2
:1001CC0089B2094801F0EEFC2B6801332B60AFE7D4
:1001DC00054803B0BDE8F04000F02ABC6C000020DC
:1001EC007800002040420F00780400200F000080AF
:1001FC0044F6206001F044BF062800F2D580DFE809
:10020C0000F004081D466A86AC000023136001232D
:10021C0037E031F0020108D14FF0FF3313600123B6
:10022C00936002235160D36070476FF00F00002180
:10023C0010234FF0200C82E80B10704741B94FF09F
:10024C00FF331360012393600F235160D360704719
:10025C00012905D16FF0100313606FF00F0334E028
:10026C0002294FF0000309D14FF0FF3182E80A0058
:10027C00012393606FF00E03D36070476FF00F0192
:10028C0011605360102393601123D360704741B900
:10029C004FF0FF3313600123936011235160D3603F
:1002AC007047012904D16FF00F031360002331E074
:1002BC00022905D16FF0100313604FF0FF3364E097
:1002CC006FF00F0313606FF00E0353600023936005
:1002DC001023D360704741B94FF0FF3313600123F3
:1002EC00936010235160D36070476FF00F030129A6
:1002FC00136007D1002353604FF0FF33936010233A
:10030C00D3607047022949D04FF0FF333DE039B933
:10031C00116001235360102393600F23D360704747
:10032C00012905D16FF0100313604FF0FF33CCE7B8
:10033C006FF00F030229136008D16FF00E035360A6
:10034C00002393604FF0FF33D3607047002353605A
:10035C00012393601123D360704719B911604FF0DA
:10036C00FF338EE7012909D16FF00F004FF0FF31F9
:10037C0000234FF00F0C82E80B10704702290AD1B2
:10038C006FF0100313606FF00F0353600023936042
:10039C000123D36070476FF00E031360002353608A
:1003AC00012393601023D3607047000006283FD8C8
:1003BC00DFE800F004070E18252731001D48104413
:1003CC0070471C484FF47A73104403FB02007047CB
:1003DC00022092FBF0F317494FF47A70114400FBA2
:1003EC0003107047022392FBF3F312494FF47A7017
:1003FC001944052392FBF3F200FB02107047022311
:10040C0000E0052392FBF3F30A4818444FF47A7387
:10041C0003FB02007047032092FBF0F205484FF4F7
:10042C007A73104403FB0200034B03FB020070477A
:10043C00704700BF00CA9A3B40420F0030B585B0F0
:10044C000446084611466A461D46FFF7D5FE009A3B
:10045C00002110465DF8213001319A42B8BF1A468E
:10046C009842A8BF18460429F4D10B4B2244FF2A0A
:10047C0019600EDCC4420CD400225DF82210214419
:10048C0055F82130002B04DC0132042AF5D101206F
:10049C0000E0002005B030BD6C000020F0B50F4628
:1004AC0005461C4685B00021384616466A46FFF7BD
:1004BC00A3FE2346002239462846FFF7BFFF48B16A
:1004CC0000235DF8232001332A44042B44F82260D6
:1004DC00F7D108E003465DF8232001332A44042BAE
:1004EC0044F82260F7D105B0F0BD2DE9FF470F4667
:1004FC0090460646D8F800106A4638469A46DDF80B
:10050C0030900D9DFFF778FE002319465DF82320EF
:10051C0001333244042B45F82210F7D16A46514678
:10052C003846FFF769FE2B46524639463046FFF7F0
:10053C0085FF044658B100235DF823200133324473
:10054C00042B45F82290F7D1C8F800A00EE03846ED
:10055C006A46D8F80010FFF74FFE20465DF82030B1
:10056C0001303344042845F82390F7D104B0BDE89A
:10057C00F08700FB0220411E03EB80039142A3F1A4
:10058C00040304DB53F8400C01391860F6E770479C
:10059C002DE9F04700240546884617461646A24624
:1005AC004FEA8109AC421DDA07EB841001220023CB
:1005BC00AB4206DA50F823100133002908BF0022A1
:1005CC00F6E762B10023AB4203DA46F823A001330D
:1005DC00F9E73B46424629462046FFF7CAFF01345D
:1005EC004E44DFE7BDE8F0872DE9F043904685B037
:1005FC0004460D466A461946404699460C9F0D9E88
:10060C00FFF7FAFD0023194620685DF8232001331B
:10061C000244042B46F82210F6D1012D36D0022DBF
:10062C0061D0002D40F08D80206833464A4641460B
:10063C001030FFF703FF78B922685DF825300135DB
:10064C001344042D46F82370F6D110210846324687
:10065C00FFF79EFF012075E02A4621685DF82530E2
:10066C0001350B44042D46F82320F6D100222168D5
:10067C005DF8223001320B441033042A46F8237003
:10068C00F5D123680020103323605BE020683346EB
:10069C004A4641460130FFF7D1FED0B1002319463E
:1006AC0020685DF8232001330244042B46F8221005
:1006BC00F6D1002221685DF8223001320B4401335F
:1006CC00042A46F82370F5D12368002001332360F7
:1006DC0038E022685DF8203001301344042846F8D5
:1006EC002370F6D12DE0206833464A464146013846
:1006FC00FFF7A4FEE0B10023194620685DF8232023
:10070C0001330244042B46F82210F6D10022216852
:10071C005DF8223001320B4403F18043013B042A83
:10072C0046F82370F3D123680020013B236009E0D5
:10073C0022685DF8203001301344042846F82370F9
:10074C00F6D1002005B0BDE8F08300002DE9F34799
:10075C004FF00A0A0E4617461D4690FBFAFADDF8D2
:10076C002880DDF82C900024544565DA002002F036
:10077C0075F80128014612D18DE800032B683A4622
:10078C003046FFF731FF2E48FFF7CCFC002002F07B
:10079C0065F801284BD1052001F072FCF6E7012029
:1007AC0002F05CF8012813D18DE800032B683A465F
:1007BC0002213046FFF718FF2148FFF7B3FC012058
:1007CC0002F04CF8012832D1052001F059FCF6E773
:1007DC00022002F043F8012804D105200A3401F06C
:1007EC004FFC24E0032002F039F8012817D12B68C4
:1007FC003068022B8DE80003D4BF013300232A4656
:10080C003946FFF772FE0E48FFF78CFC032002F00E
:10081C0025F801280BD1052001F032FCF6E7042065
:10082C0002F01CF8012802D1002001F0ADFB0A20D7
:10083C0001F026FC013497E702B0BDE8F08700BF59
:10084C00780000202DE9F347072001F0CBFE2C4C5B
:10085C002C4B2D4D00210826142207461E602160CA
:10086C002860FFF7A3FD39460246284B3046FFF7B8
:10087C0015FE274608B9FFF7BBFC244CDFF888901F
:10088C002046FFF74FFC2E68142200213046FFF75C
:10089C008DFD1B4B8DE8110032461A494FF4FA605E
:1008AC00FFF754FFA0462E68142200213046FFF7B4
:1008BC007DFDD7F800A000218DE81100534632468B
:1008CC001048FFF791FE014690B9D9F80060142248
:1008DC003046FFF76BFD0A4B8DE8010132460949A2
:1008EC004FF4FA60FFF732FF0848FFF71BFCDAE71A
:1008FC004FF47A7002B0BDE8F04701F0C1BB00BF05
:10090C008C0400207000002074000020780000206F
:10091C0038B5114C114D01F07FF902230C224FF424
:10092C008071204600F073F82A460D4920460D4C84
:10093C0002F000F800232360A380A37123814FF6FB
:10094C00FF730320638101F081FA2A462046BDE83B
:10095C003840054901F0EEBF780400206800002003
:10096C007D090A0890040020AF000A0801F094B930
:10097C0010B50446C06808B101F0ECFA23781BB13D
:10098C000021E07901F040FF204610BD38B5044647
:10099C00C0680D4608B101F0DDFAA379062B0CBF37
:1009AC0004200320684380B2A08001F0CBFAE06001
:1009BC0028B1A288002102F040F9658038BDA080E2
:1009CC00608038BD10B504460121C07901F01CFFD0
:1009DC000021E07901F029FF0123237010BD38B507
:1009EC00037805460C461BB10021C07901F00CFFC1
:1009FC002B78EC7153B1A4B22046012101F004FF15
:100A0C002046BDE83840002101F00FBF38BD70B55D
:100A1C00044616460025837105700572C560056194
:100A2C00FFF7B4FF20463146FFF7D9FF204670BDD3
:100A3C00C368002B00F08E852DE9F04104468379C4
:100A4C0086B0023BDBB2042B96BF294A322552F802
:100A5C002350FFF78BFF2369C01AA842F9D372B653
:100A6C00A179A3880229ADF80A30D4F80CE000F083
:100A7C007282072900F06F82062900F03284052962
:100A8C0000F0AB83082900F0A883002940F06385AF
:100A9C00184A4FF40006BDF80A309BB2002B00F048
:100AAC0095830496BDF80A300EF10305033B9BB207
:100ABC00ADF80A309EF80030DBB28DF807309EF8A6
:100ACC000130DBB28DF806309EF80230DBB28DF8C7
:100ADC0008309DF807709DF806309DF808001B0241
:100AEC0043EA0743034303938DF805101BE100BF52
:100AFC00402D0A089C040020004600BF00BF00BF28
:100B0C0000BF00BF00BF00BF00BF00BF00BF00BFE1
:100B1C0000BF00BF00BF00BF00BF00BF00BF00BFD1
:100B2C0000BF00BF00BF00BF00BF00BF00BF00BFC1
:100B3C0000BF00BF00BF00BF00BF00BF00BF00BFB1
:100B4C0000BF00BF00BF00BF00BF00BF00BF00BFA1
:100B5C0000BF00BF00BF00BF00BF00BF00BF00BF91
:100B6C0000BF00BF00BF00BF00BF00BF00BF00BF81
:100B7C0000BF00BF00BF00BF00BF00BF00BF00BF71
:100B8C0000BF00BF00BF00BF00BF00BF00BF00BF61
:100B9C0000BF00BF00BF00BF00BF00BF00BF00BF51
:100BAC0000BF00BF00BF00BF00BF00BF00BF00BF41
:100BBC0000BF00BF00BF00BF00BF00BF00BF00BF31
:100BCC0000BF00BF00BF00BF00BF00BF00BF00BF21
:100BDC0000BF00BF00BF00BF00BF00BF00BF00BF11
:100BEC0000BF00BF00BF00BF00BF00BF00BF00BF01
:100BFC0000BF00BF00BF00BF00BF00BF00BF00BFF1
:100C0C00E3791068C3EBC30300EB8307BF8850F88C
:100C1C0023305F83004600BF00BF00BF00BF00BF92
:100C2C0000BF00BF00BF00BF00BF00BF00BF00BFC0
:100C3C0000BF00BF00BF00BF00BF00BF00BF00BFB0
:100C4C0000BF00BF00BF00BF00BF00BF00BF00BFA0
:100C5C0000BF00BF00BF00BF00BF00BF00BF00BF90
:100C6C0000BF00BF00BF00BF00BF00BF00BF00BF80
:100C7C0000BF00BF00BF00BF00BF00BF00BF00BF70
:100C8C0000BF00BF00BF00BF00BF00BF00BF00BF60
:100C9C0000BF00BF00BF00BF00BF00BF00BF00BF50
:100CAC0000BF00BF00BF00BF00BF00BF00BF00BF40
:100CBC0000BF00BF00BF00BF00BF00BF00BF00BF30
:100CCC0000BF00BF00BF00BF00BF00BF00BF00BF20
:100CDC0000BF00BF00BF00BF00BF00BF00BF00BF10
:100CEC0000BF00BF00BF00BF00BF00BF00BF00BF00
:100CFC0000BF00BF00BF00BF00BF00BF00BF00BFF0
:100D0C0000BF00BF00BF00BF00BF00BF00BF049BFF
:100D1C005B0804939DF805300133DBB2172B8DF87B
:100D2C00053000F2DB82E3791068C3EBC30300EB00
:100D3C008307BF8850F823301F830398049B184205
:100D4C007FF4DAAE004600BF00BF00BF00BF00BF9B
:100D5C0000BF00BF00BF00BF00BF00BF00BF00BF8F
:100D6C0000BF00BF00BF00BF00BF00BF00BF00BF7F
:100D7C0000BF00BF00BF00BF00BF00BF00BF00BF6F
:100D8C0000BF00BF00BF00BF00BF00BF00BF00BF5F
:100D9C0000BF00BF00BFE3791068C3EBC30300EBD7
:100DAC008307BF8850F823305F83004600BF00BF25
:100DBC0000BF00BF00BF00BF00BF00BF00BF00BF2F
:100DCC0000BF00BF00BF00BF00BF00BF00BF00BF1F
:100DDC0000BF00BF00BF00BF00BF00BF00BF00BF0F
:100DEC0000BF00BF00BF00BF00BF00BF00BF00BFFF
:100DFC0000BF00BF00BF00BF00BF00BF00BF00BFEF
:100E0C0000BF00BF00BF00BF00BF00BF00BF00BFDE
:100E1C0000BF00BF00BF00BF00BF00BF00BF00BFCE
:100E2C0000BF00BF00BF00BF00BF00BF00BF00BFBE
:100E3C0000BF00BF00BF00BF00BF00BF00BF00BFAE
:100E4C0000BF00BF00BF00BF00BF00BF00BF00BF9E
:100E5C0000BF00BF00BF00BF00BF00BF00BF00BF8E
:100E6C0000BF00BF00BF00BF00BF00BF00BF00BF7E
:100E7C0000BF00BF00BF00BF00BF00BF00BF00BF6E
:100E8C0000BF00BF00BF00BF00BF00BF00BF00BF5E
:100E9C0000BF00BF00BF00BF00BF00BF00BF00BF4E
:100EAC0000BF00BF00BF00BF00BF00BF00BF00BF3E
:100EBC0000BF00BF00BF00BF00BF00BF00BF00BF2E
:100ECC0000BF00BF00BF00BF00BF00BF00BF00BF1E
:100EDC0000BF00BF00BF00BF00BF00BF00BF00BF0E
:100EEC0000BF00BF00BF00BF00BF00BF00BF00BFFE
:100EFC0000BF00BF00BF00BF00BF00BF00BF00BFEE
:100F0C0000BF00BF00BF00BF00BF00BF00BF00BFDD
:100F1C0000BF00BF00BF00BF00BF00BF00BF00BFCD
:100F2C0000BF00BF00BF00BF00BF00BF00BF00BFBD
:100F3C0000BF00BF00BF00BF00BF00BF00BF00BFAD
:100F4C0000BF00BF00BF00BF00BF00BF00BF00BF9D
:100F5C0000BF00BFDBE6BDF80A30174A9BB24FF466
:100F6C0000050026002B00F031810495BDF80A30F5
:100F7C000EF10301033B9BB2ADF80A309EF8003032
:100F8C00DBB28DF806309EF80130DBB28DF80730FD
:100F9C009EF80230DBB28DF808309DF806309DF8D3
:100FAC0007009DF80870000240EA03433B4303939B
:100FBC008DF8056080E000BF9C040020004600BF57
:100FCC0000BF00BF00BF00BF00BF00BF00BF00BF1D
:100FDC0000BF00BF00BF00BF00BF00BF00BF00BF0D
:100FEC0000BF00BF00BF00BF00BF00BF00BF00BFFD
:100FFC0000BF00BF00BF00BF00BF00BF00BF00BFED
:10100C0000BF00BF00BF00BF00BF00BF00BF00BFDC
:10101C0000BF00BF00BF00BF00BF00BF00BF00BFCC
:10102C0000BF00BF00BF00BF00BF00BF00BF00BFBC
:10103C0000BF00BF00BF00BF00BF00BF00BF00BFAC
:10104C0000BF00BF00BF00BF00BF00BF00BF00BF9C
:10105C0000BF00BF00BFE3791068C3EBC30300EB14
:10106C008307BF8850F823305F83004600BF00BF62
:10107C0000BF00BF00BF00BF00BF00BF00BF00BF6C
:10108C0000BF00BF00BF00BF00BF00BF00BF00BF5C
:10109C0000BF00BF00BF00BF00BF00BF00BF00BF4C
:1010AC00049B5B0804939DF805300133DBB2172BCE
:1010BC008DF8053000F28380E3791068C3EBC3032D
:1010CC0000EB8307BF8850F823301F830398049BE1
:1010DC0018427FF473AF004600BF00BF00BF00BFD3
:1010EC0000BF00BF00BF00BF00BF00BF00BF00BFFC
:1010FC0000BF00BF00BF00BF00BF00BF00BFE3794F
:10110C001068C3EBC30300EB8307BF8850F8233090
:10111C005F83004600BF00BF00BF00BF00BF00BF21
:10112C0000BF00BF00BF00BF00BF00BF00BF00BFBB
:10113C0000BF00BF00BF00BF00BF00BF00BF00BFAB
:10114C0000BF00BF00BF00BF00BF00BF00BF00BF9B
:10115C0000BF00BF00BF00BF00BF00BF00BF00BF8B
:10116C0000BF00BF00BF00BF00BF00BF00BF00BF7B
:10117C0000BF00BF00BF00BF00BF00BF00BF00BF6B
:10118C0000BF00BF00BF00BF00BF00BF00BF00BF5B
:10119C0000BF00BF00BF00BF00BF00BF00BF00BF4B
:1011AC0000BF00BF00BF00BF00BF00BF00BF00BF3B
:1011BC0000BF00BF00BF00BF00BF00BF70E7BDF89D
:1011CC000A308E469BB2002B7FF4CFAE62B6FFF78F
:1011DC00CDFB206106B0BDE8F0815E4B5E4A18463F
:1011EC0011684FF400080027BDF80A2092B2002ABB
:1011FC00ECD0CDF81080BDF80A200EF10305033AAF
:10120C0092B2ADF80A209EF80020D2B28DF80620DA
:10121C009EF80120D2B28DF807209EF80220D2B29F
:10122C008DF808209DF806209DF807E09DF808C071
:10123C004FEA0E2E4EEA024242EA0C0203928DF85D
:10124C000570E2795E68C2EBC20201EB820EBEF859
:10125C0004E051F822200596A2F818E0039E049AA7
:10126C00164223D05A68059E921B4F2AFAD9E2796E
:10127C00C2EBC20201EB820EBEF804E051F8222050
:10128C00A2F81AE0426805925A68059E921B072A3A
:10129C00FAD9049A520804929DF805200132D2B270
:1012AC00172A8DF80520CCD9AE469DE75A68059EC5
:1012BC00921B182AFAD9E279C2EBC20201EB820E18
:1012CC00BEF804E051F82220A2F81AE04268059218
:1012DC005A68059E921B452AFAD9DAE7AE46FFF703
:1012EC00DABB1D4A4FF000450026BDF80A309BB210
:1012FC00002B3FF46BAF0495BDF80A300EF10401DE
:10130C00043B9BB2ADF80A309EF80030DBB28DF88E
:10131C0007309EF80130DBB28DF806309EF80230B3
:10132C00DBB28DF808309EF80330DBB28DF8093053
:10133C009DF807309DF806709DF808E03F049DF875
:10134C00090047EA0363034343EA0E2303938DF832
:10135C0005607EE0001000E09C040020004600BF09
:10136C0000BF00BF00BF00BF00BF00BF00BF00BF79
:10137C0000BF00BF00BF00BF00BF00BF00BF00BF69
:10138C0000BF00BF00BF00BF00BF00BF00BF00BF59
:10139C0000BF00BF00BF00BF00BF00BF00BF00BF49
:1013AC0000BF00BF00BF00BF00BF00BF00BF00BF39
:1013BC0000BF00BF00BF00BF00BF00BF00BF00BF29
:1013CC0000BF00BF00BF00BF00BFE3791068C3EBD4
:1013DC00C30300EB8307BF8850F823305F830046BC
:1013EC0000BF00BF00BF00BF00BF00BF00BF00BFF9
:1013FC0000BF00BF00BF00BF00BF00BF00BF00BFE9
:10140C0000BF00BF00BF00BF00BF00BF00BF00BFD8
:10141C0000BF00BF00BF00BF00BF00BF00BF00BFC8
:10142C0000BF00BF00BF00BF00BF00BF00BF00BFB8
:10143C0000BF00BF00BF00BF00BF00BF049B5B0824
:10144C0004939DF805300133DBB21F2B8DF805306A
:10145C007ED8E3791068C3EBC30300EB8307BF8826
:10146C0050F823301F830398049B18427FF476AF07
:10147C00004600BF00BF00BF00BF00BF00BF00BFE1
:10148C0000BF00BF00BF00BF00BF00BF00BF00BF58
:10149C0000BF00BF00BF00BFE3791068C3EBC303FC
:1014AC0000EB8307BF8850F823305F83004600BFF2
:1014BC0000BF00BF00BF00BF00BF00BF00BF00BF28
:1014CC0000BF00BF00BF00BF00BF00BF00BF00BF18
:1014DC0000BF00BF00BF00BF00BF00BF00BF00BF08
:1014EC0000BF00BF00BF00BF00BF00BF00BF00BFF8
:1014FC0000BF00BF00BF00BF00BF00BF00BF00BFE8
:10150C0000BF00BF00BF00BF00BF00BF00BF00BFD7
:10151C0000BF00BF00BF00BF00BF00BF00BF00BFC7
:10152C0000BF00BF00BF00BF00BF00BF00BF00BFB7
:10153C0000BF00BF00BF00BF00BF00BF00BF00BFA7
:10154C0000BF00BF00BF00BF00BF00BF00BF75E7FA
:10155C008E46CAE67047032900F02E811E4A4FF4CE
:10156C0000050026BDF80A309BB2002B3FF42EAECE
:10157C000495BDF80A30E079033B9BB2ADF80A3014
:10158C009EF800300EF10301DBB28DF807309EF8A7
:10159C000130C0EBC000DBB28DF808309EF8023091
:1015AC00D2F800E0DBB28DF806309DF807709DF89C
:1015BC0008300EEB800C1B0243EA07439DF80670C3
:1015CC00BCF804C05EF820003B4303938DF8056023
:1015DC00A0F81AC07DE000BF9C040020049B5B08AF
:1015EC000493004600BF00BF00BF00BF00BF00BF98
:1015FC0000BF00BF00BF00BF00BF00BF00BF00BFE7
:10160C0000BF00BF00BF00BF00BF00BF00BF00BFD6
:10161C0000BF00BF00BF00BF00BF00BF00BF00BFC6
:10162C0000BF00BF00BF00BF00BF00BF00BF00BFB6
:10163C0000BF00BF00BF00BF00BF00BF00BF00BFA6
:10164C0000BF00BF00BF00BF00BF00BF00BF00BF96
:10165C0000BF00BF00BF00BF00BF00BF00BF00BF86
:10166C0000BF00BF00BF00BFE07917689DF80530D0
:10167C00C0EBC00007EB800EBEF804E057F820006A
:10168C000133DBB28DF80530A0F818E0004600BF3E
:10169C0000BF00BF00BF00BF00BF00BF00BF00BF46
:1016AC0000BF00BF00BF00BF00BF00BF00BF00BF36
:1016BC0000BF00BF00BF9DF80530182B7AD0E3792E
:1016CC001068C3EBC30300EB8307BF8850F82330CB
:1016DC005F830398049B184280D1004600BF00BF73
:1016EC0000BF00BF00BF00BF00BF00BF00BF00BFF6
:1016FC0000BF00BF00BF00BF00BF00BFE379106890
:10170C00C3EBC30300EB8307BF8850F823301F8360
:10171C009DF805300133DBB28DF80530049B5B0876
:10172C000493004600BF00BF00BF00BF00BF00BF56
:10173C0000BF00BF00BF00BF00BF00BF00BF00BFA5
:10174C0000BF00BF00BF00BF00BF00BF00BF00BF95
:10175C0000BF00BF00BF00BF00BF00BF00BF00BF85
:10176C0000BF00BF00BF00BF00BF00BF00BF00BF75
:10177C0000BF00BF00BF00BF00BF00BF00BF00BF65
:10178C0000BF00BF00BF00BF00BF00BF00BF00BF55
:10179C0000BF00BF00BF00BF00BF00BF00BF00BF45
:1017AC0000BF00BF00BF00BF00BF00BF9DF80530E9
:1017BC00182B84D18E46D5E6174A4FF40005002627
:1017CC00BDF80A309BB2002B3FF400AD0495BDF878
:1017DC000A300EF10301033B9BB2ADF80A309EF8C0
:1017EC000030DBB28DF807309EF80130DBB28DF89B
:1017FC0006309EF80230DBB28DF808309DF8077089
:10180C009DF806309DF808001B0243EA074303438A
:10181C0003938DF80560E0E09C040020004600BFB7
:10182C0000BF00BF00BF00BF00BF00BF00BF00BFB4
:10183C0000BF00BF00BF00BF00BF00BF00BF00BFA4
:10184C0000BF00BF00BF00BF00BF00BF00BF00BF94
:10185C0000BF00BF00BF00BF00BF00BF00BF00BF84
:10186C0000BF00BF00BF00BF00BF00BF00BF00BF74
:10187C0000BF00BF00BF00BF00BF00BF00BF00BF64
:10188C0000BF00BF00BF00BF00BF00BF00BF00BF54
:10189C0000BF00BF00BF00BF00BF00BF00BF00BF44
:1018AC0000BF00BF00BF00BF00BF00BF00BF00BF34
:1018BC0000BF00BF00BF00BF00BF00BF00BF00BF24
:1018CC0000BF00BF00BF00BF00BF00BF00BF00BF14
:1018DC0000BF00BF00BF00BF00BF00BF00BF00BF04
:1018EC0000BF00BF00BF00BF00BF00BF00BF00BFF4
:1018FC0000BF00BF00BF00BF00BF00BF00BF00BFE4
:10190C0000BF00BF00BF00BF00BF00BF00BF00BFD3
:10191C0000BF00BF00BF00BF00BF00BF00BF00BFC3
:10192C0000BF00BF00BF00BF00BF00BF00BF00BFB3
:10193C0000BF00BF00BF00BF00BF00BF00BFE37906
:10194C001068C3EBC30300EB8307BF8850F8233048
:10195C005F83004600BF00BF00BF00BF00BF00BFD9
:10196C0000BF00BF00BF00BF00BF00BF00BF00BF73
:10197C0000BF00BF00BF00BF00BF00BF00BF00BF63
:10198C0000BF00BF00BF00BF00BF00BF00BF00BF53
:10199C0000BF00BF00BF00BF00BF00BF00BF00BF43
:1019AC0000BF00BF00BF00BF00BF00BF00BF00BF33
:1019BC0000BF00BF00BF00BF00BF00BF00BF00BF23
:1019CC0000BF049B5B0804939DF805300133DBB228
:1019DC00172B8DF8053000F2E380E3791068C3EB28
:1019EC00C30300EB8307BF8850F823301F83039891
:1019FC00049B18427FF412AF004600BF00BF00BF2B
:101A0C0000BF00BF00BF00BF00BF00BF00BF00BFD2
:101A1C0000BF00BF00BF00BF00BF00BF00BF00BFC2
:101A2C0000BF00BF00BF00BF00BF00BF00BF00BFB2
:101A3C0000BF00BF00BF00BF00BF00BF00BF00BFA2
:101A4C0000BF00BF00BF00BF00BF00BF00BF00BF92
:101A5C0000BF00BF00BF00BF00BF00BF00BF00BF82
:101A6C0000BF00BF00BF00BF00BF00BF00BF00BF72
:101A7C0000BF00BF00BF00BF00BFE3791068C3EB1D
:101A8C00C30300EB8307BF8850F823305F83004605
:101A9C0000BF00BF00BF00BF00BF00BF00BF00BF42
:101AAC0000BF00BF00BF00BF00BF00BF00BF00BF32
:101ABC0000BF00BF00BF00BF00BF00BF00BF00BF22
:101ACC0000BF00BF00BF00BF00BF00BF00BF00BF12
:101ADC0000BF00BF00BF00BF00BF00BF00BF00BF02
:101AEC0000BF00BF00BF00BF00BF00BF00BF00BFF2
:101AFC0000BF00BF00BF00BF00BF00BF00BF00BFE2
:101B0C0000BF00BF00BF00BF00BF00BF00BF00BFD1
:101B1C0000BF00BF00BF00BF00BF00BF00BF00BFC1
:101B2C0000BF00BF00BF00BF00BF00BF00BF00BFB1
:101B3C0000BF00BF00BF00BF00BF00BF00BF00BFA1
:101B4C0000BF00BF00BF00BF00BF00BF00BF00BF91
:101B5C0000BF00BF00BF00BF00BF00BF00BF00BF81
:101B6C0000BF00BF00BF00BF00BF00BF00BF00BF71
:101B7C0000BF00BF00BF00BF00BF00BF00BF00BF61
:101B8C0000BF00BF00BF00BF00BF00BF00BF00BF51
:101B9C0000BF00BF00BF00BF00BF00BF00BF10E709
:101BAC008E460DE6F0B544889DF814508C4227D92A
:101BBC00047A44B1624363436C43C2F30722C3F318
:101BCC000723C4F307258779C66801EB4101082F69
:101BDC0006EB010411D80120B84010F4D27F08D1D3
:101BEC00C0060AD5FF2A08BFFE2272546570A37086
:101BFC00F0BD73546270A570F0BD72546370A57023
:101C0C00F0BD000008B500F007F800F005F8014B36
:101C1C00186008BD9C04002008B5024B1B681B68AB
:101C2C00019308BDB001060808B5024B1B689B6800
:101C3C00019308BDB001060808B5024B1B68DB68B0
:101C4C00019308BDB001060808B5024B1B681B695F
:101C5C00019308BDB001060808B5024B1B685B690F
:101C6C00019308BDB001060808B5024B1B68DB697F
:101C7C00019308BDB401060808B5024B1B681B6A2A
:101C8C00019308BDB401060808B5024B1B685B68DC
:101C9C00019308BD9C01060808B5024B1B681B6923
:101CAC00019308BD9C01060808B5024B1B685B69D3
:101CBC00019308BD9C01060808B5024B1B68DB6943
:101CCC00019308BDB801060808B5024B1B685B6C94
:101CDC00019308BDD001060808B5024B1B689B6C2C
:101CEC00019308BDD001060808B5024B1B689B691F
:101CFC00019308BDC401060808B5024B1B685B6A5A
:101D0C00019308BDC401060808B5024B1B689B6A09
:101D1C00019308BDC401060808B5024B1B68DB6AB9
:101D2C00019308BDC401060808B5024B1B681B6B68
:101D3C00019308BDC401060808B5024B1B685B6B18
:101D4C00019308BDC401060808B5024B1B689B6BC8
:101D5C00019308BDC401060808B5024B1B681B6C37
:101D6C00019308BDC401060808B5024B1B681B6E25
:101D7C00019308BDAC01060808B5024B1B685B6EED
:101D8C00019308BDAC01060808B5024B1B689B6E9D
:101D9C00019308BDAC01060808B5024B1B68DB6E4D
:101DAC00019308BDAC01060808B5024B1B681B6FFC
:101DBC00019308BDAC01060808B5024B1B685B6FAC
:101DCC00019308BDAC01060808B5034B1B68D3F89A
:101DDC008030019308BD0000AC01060808B5024B29
:101DEC001B681B68019308BDD801060808B5024B97
:101DFC001B681B69019308BDD801060808B5024B86
:101E0C001B685B69019308BDD801060808B5024B35
:101E1C001B689B69019308BDD801060808B5024BE5
:101E2C001B68DB69019308BDD801060808B5024B95
:101E3C001B681B6A019308BDD801060808B5024B44
:101E4C001B689B6C019308BDC001060808B5024BCA
:101E5C001B685B68019308BDA401060808B5024B1A
:101E6C001B685B69019308BDA401060808B5034B08
:101E7C001B68D3F89030019308BD0000A40106083C
:101E8C0008B5034B1B68D3F89C30019308BD0000C8
:101E9C00A401060808B5024B1B685B68019308BDDA
:101EAC00C801060808B5024B1B689B68019308BD66
:101EBC00C801060808B5024B1B68DB68019308BD16
:101ECC00C801060808B5024B1B681B69019308BDC5
:101EDC00C801060808B5024B1B685B69019308BD75
:101EEC00C801060808B5024B1B689B69019308BD25
:101EFC00C801060808B5024B1B68DB69019308BDD5
:101F0C00C801060808B5024B1B681B6A019308BD83
:101F1C00C801060808B5024B1B681B6B019308BD72
:101F2C00C801060808B5024B1B685B6B019308BD22
:101F3C00C801060808B5024B1B68DB6B019308BD92
:101F4C00CC01060808B5024B1B681B68019308BD41
:101F5C00A001060808B5024B1B685B68019308BD1D
:101F6C00A001060870B504460E46002540F8085F2F
:101F7C00FFF7AAFE30462670FFF776FE6560204616
:101F8C0070BD0078FFF778BEFFF796BE4FF6FF7373
:101F9C0010B5084C00202060A080A07120816381C6
:101FAC00FFF754FF2046BDE81040034A034900F0F8
:101FBC00C1BC00BFA004002068000020AF000A08CC
:101FCC00F8B506460D468F180024BD420CD0336878
:101FDC0015F8011B9B6830469847002801DB044428
:101FEC00F3E7002C08BF04462046F8BD70B5054643
:101FFC000C46084649B100F08BFE2B680246214680
:10200C002846BDE87040DB68184770BD03689B68C4
:10201C001847012A98BF0A2230B50B468BB0002115
:10202C008DF824100DF12304B3FBF2F505FB1233EC
:10203C00DBB2092B94BF30333733DBB2214604F8C3
:10204C0001392B46002DEFD1FFF7D0FF0BB030BD7F
:10205C0000231A4619464068FFF73CBF014A024B61
:10206C001A607047CA2D0A08AC040020024B1A688B
:10207C00024B1A60704700BF00000020B004002023
:10208C000021FFF7EBBE10B58368044613B10322A1
:10209C0001469847204610BD10B50446FFF7F3FFE4
:1020AC00204610BD034800238360034A034900F017
:1020BC0041BC00BFB404002068000020A5200A0821
:1020CC0008B5144B33B100F067F903681B699847E6
:1020DC00002816DC104B33B100F01CFA03681B69A6
:1020EC009847002810DC0D4B0BB1AFF300800C4B64
:1020FC007BB100F08DF903681B699847002806DC5A
:10210C0008BDAFF30080E5E7AFF30080EBE7AFF37A
:10211C00008008BD0000000000000000000000006E
:10212C000000000008B5FFF7CBFFFFF7BDFD014B2A
:10213C00186008BD480900200248034A0349121AD6
:10214C0000F070BD004002400440024010300A080C
:10215C0007B5002300931A466FF07701FFF790FE46
:10216C0003B05DF804FB000007B543880A2B08D0C8
:10217C00502B09D1094B1B683BB103B05DF804EB44
:10218C001847FFF7E5FF06E0002300931A466FF0AF
:10219C007701FFF775FE03B05DF804FBC404002063
:1021AC0038B5104C104D2368AB42104B0CBF0122BC
:1021BC0000221A7002D0FFF7BFFF2560FFF764FD05
:1021CC00044600F043FD0A4B13B12046AFF30080E8
:1021DC0000210748FFF7AEFEBDE838400021054856
:1021EC00FFF744BE004002401E1C279AC804002082
:1021FC000000000075210A08704710B5044618212C
:10220C0000F0A6FB204610BDF8B50F4600F10806FD
:10221C00051D002416F8011D0A223846FFF7F9FEA9
:10222C00AE42044407D0002CF4D02E213846FFF7E0
:10223C00EDFE0444EEE72046F8BD000010B5044660
:10224C00044B112240F8043B002100F0F6FC204620
:10225C0010BD00BF6C2E0A080346074A10B543F8A0
:10226C00042B01F1100251F8044B914243F8044B3A
:10227C00F9D10A781A7010BD6C2E0A08024A416016
:10228C0002600422027570476C2E0A0810B59DF886
:10229C00084044EA032343EA024242EA0161042370
:1022AC004160037510BD000037B5044D05609DF805
:1022BC0018500095FFF7EAFF03B030BD6C2E0A08EA
:1022CC0041747047704708B50021007CFFF79EFDF4
:1022DC0030EA200028BF4FF0FF3008BD08B50121BF
:1022EC00007CFFF793FD30EA200028BF4FF0FF3051
:1022FC0008BD08B5007CFFF781FD20EAE07008BD41
:10230C0008B5007CFFF772FD20EAE07008BD007C88
:10231C00FFF78CBD10B50446142100F019FB2046C4
:10232C0010BD38B50446007C0D46FFF767FD00284C
:10233C0001DC607C28B12946207CFFF76FFD20EA88
:10234C00E07038BD10B50446002363604FF47A7317
:10235C00A360054B08462360012321746374114666
:10236C00FFF73CFD204610BD802E0A0810B5044630
:10237C001422002100F061FC054B20466360054BE4
:10238C00E36040F2011323818123238210BD00BF3F
:10239C0051050020D004002030B50E4D87B001A8A7
:1023AC00FFF7E4FF296811F0010410D12846FDF76E
:1023BC0070FE60B101AA21460748FFF7C3FF28460B
:1023CC00FDF76CFE054A0649034800F0B3FA0248D3
:1023DC0007B030BDCC04002054060020680000205B
:1023EC00D1220A0810B504461422002100F025FC65
:1023FC00054B20466360054BE36040F201132381DB
:10240C008123238210BD00BF040700206C0600202E
:10241C0010B50E4C86B001A8FFF7E4FF2368DB076C
:10242C0010D42046FDF735FE60B101AA0121084801
:10243C00FFF788FF2046FDF731FE064A064904489F
:10244C0000F078FA024806B010BD00BF6806002004
:10245C00F006002068000020D1220A087047417461
:10246C00704708B5007CFFF777FC20EAE07008BDE8
:10247C0008B5007CFFF748FC20EAE07008BD08B501
:10248C00007CFFF751FC30EA200028BF4FF0FF30F2
:10249C0008BD08B5007CFFF73FFC30EA200028BFE0
:1024AC004FF0FF3008BD007CFFF746BC10B504466A
:1024BC00142100F04DFA204610BD70B5457C044641
:1024CC000E4625B9007CFFF747FC002805DD314698
:1024DC00207CBDE87040FFF70FBC284670BD0000A3
:1024EC0010B5044608461146002262604FF47A7219
:1024FC00A260054A20742260012262741A46FFF71A
:10250C00F3FB204610BD00BFB02E0A08007CFFF77D
:10251C001BBC000038B50C4D296811F0010411D119
:10252C002846FDF7B6FD68B1084A2146084B094814
:10253C00FFF7D6FF2846FDF7B1FD074A07490548C6
:10254C0000F0F8F9034838BDA0080020A4080020CA
:10255C001C080020080800206800002069240A08D4
:10256C007047F8B5064615460C468F18BC4206D087
:10257C00336814F8011B9B6830469847F6E72846E9
:10258C00F8BD0022007CFFF7EFBB0021007CFFF7B9
:10259C00F3BB0021007CFFF7F7BB0021007CFFF7A9
:1025AC00FBBB0021007CFFF7FFBB10B504461421D8
:1025BC0000F0CEF9204610BD10B504460023636030
:1025CC004FF47A73A360044B2174084623601146C0
:1025DC00FFF7FAFB204610BDE02E0A080021007C14
:1025EC00FFF7EABB10B5044630B100F057FB90FB87
:1025FC00F4F303FB140010BD10BD0022114640681B
:10260C00FFF760BCF0B5164689B011220F460446A0
:10261C00002103A800F011FB304600F079FB0025E7
:10262C00009581B27B6803AA3046FFF707FC20B106
:10263C0029462046FFF722FE03E003A92046FFF7B8
:10264C000BFE204609B0F0BD002211464068FFF792
:10265C0059BC002211464068FFF764BC0022406858
:10266C00FFF758BC002281F001014068FFF742BC23
:10267C0000231A4619464068FFF734BC0022114665
:10268C004068FFF70FBC002202214068FFF712BC24
:10269C0000231A464068FFF7FDBB0000024B0422E2
:1026AC005A60024A1A60704728090020082F0A084D
:1026BC0000231A464068FFF7EDBB00220221406858
:1026CC00FFF7F8BB002211464068FFF7EBBB002276
:1026DC0011464068FFF7F6BB00231A4619464068BE
:1026EC00FFF7F8BB00231A4619464068FFF7FABB00
:1026FC00002281F001014068FFF7FCBB002240681A
:10270C00FFF708BC002211464068FFF70BBC002203
:10271C0011464068FFF7F6BB70B516468EB00446FE
:10272C0008A8FFF78BFD1122002103A800F085FA01
:10273C00304600F0EDFA00250A4B009581B25B683B
:10274C0003AA3046FFF77AFB20B129462046FFF753
:10275C0095FD03E003A92046FFF77EFD20460EB051
:10276C0070BD00BF28090020024B034A1A600022EA
:10277C005A607047300900203C2F0A0810B50446F7
:10278C00806808B1FFF7A8FA204610BD70B51A4E44
:10279C000446316811F001050FD13046FDF779FC84
:1027AC0058B129461548FFF7DDFB3046FDF776FC9E
:1027BC00134A1449114800F0BDF81048FFF7E1FB2B
:1027CC0028B1A4F10D03022B01D8002070BD00F03C
:1027DC008BF8FFF703FF08B1012CF6D9FFF79AFE2F
:1027EC00FFF794FE18B1A4F11203012BEDD9172CAD
:1027FC008CBF0020012070BD380900203C0900204E
:10280C006800002089270A08172838B504460D46A9
:10281C000AD8FF2908D0FFF7B9FF28B1294620466E
:10282C00BDE83840FFF700BA38BD38B504460D4650
:10283C00FFF702FAFF2810D0062804D84D2323FAFC
:10284C0000F0C30709D42046FFF7A0FF28B12946A2
:10285C002046BDE83840FFF7F7B938BD10B504463F
:10286C00FFF7EAF90438C0B2012808D92046FFF76F
:10287C008DFF20B12046BDE81040FFF7EDB90020D8
:10288C0010BD000013B5084C00231A4619460093DE
:10289C002046FFF709FD2046044A054902B0BDE871
:1028AC00104000F047B800BF4C0900206800002021
:1028BC0005220A0870B5044614252A46094E002143
:1028CC0000F0BBF9258020253146A56025612846FE
:1028DC0000F040F831466060284600F03BF8E060BC
:1028EC00204670BD682F0A0830B50E4D87B0296898
:1028FC0011F0010413D12846FDF7CBFB78B101A8E8
:10290C00FFF7D8FF01AA21460748FFF755FE2846D6
:10291C00FDF7C4FB054A0649034800F00BF80248D2
:10292C0007B030BD64090020680900206800002051
:10293C006D250A080B460146184600F065B90000E3
:10294C00024B1868BFF35F8F704700BF7C090020F3
:10295C00FDF79DBB00F000B810B5002814BF04466D
:10296C0001242046FFF7EEFA20B9FFF7E9FF08B182
:10297C008047F6E710BD0000184B1A68D1075CBF02
:10298C0001221A60164B1A68D2075CBF01221A602A
:10299C00144B1A68D0075CBF01221A60124B1A68DC
:1029AC00D1075CBF01221A60104B1A68D2075CBFBA
:1029BC0001221A600E4B1A68D0075CBF01221A6004
:1029CC000C4B1A68D1075CBF01221A600A4B1A68BB
:1029DC00D2075CBF01221A60704700BF9C0900201F
:1029EC009809002094090020900900208C090020EF
:1029FC00880900208409002080090020244B1A68D3
:102A0C00D0075CBF01221A60224B1A68D1075CBF49
:102A1C0001221A60204B1A68D2075CBF01221A608F
:102A2C001E4B1A68D0075CBF01221A601C4B1A6837
:102A3C00D1075CBF01221A601A4B1A68D2075CBF1F
:102A4C0001221A60184B1A68D0075CBF01221A6069
:102A5C00164B1A68D1075CBF01221A60144B1A6816
:102A6C00D2075CBF01221A60124B1A68D0075CBFF8
:102A7C0001221A60104B1A68D1075CBF01221A6040
:102A8C000E4B1A68D2075CBF01221A60704700BF58
:102A9C00CC090020C8090020C4090020C00900206E
:102AAC00BC090020B8090020B4090020B00900209E
:102ABC00AC090020A8090020A4090020A0090020CE
:102ACC00244B1A68D0075CBF01221A60224B1A688B
:102ADC00D1075CBF01221A60204B1A68D2075CBF79
:102AEC0001221A601E4B1A68D0075CBF01221A60C3
:102AFC001C4B1A68D1075CBF01221A601A4B1A686A
:102B0C00D2075CBF01221A60184B1A68D0075CBF51
:102B1C0001221A60164B1A68D1075CBF01221A6099
:102B2C00144B1A68D2075CBF01221A60124B1A6848
:102B3C00D0075CBF01221A60104B1A68D1075CBF2A
:102B4C0001221A600E4B1A68D2075CBF01221A6070
:102B5C00704700BFFC090020F8090020F409002090
:102B6C00F0090020EC090020E8090020E40900200D
:102B7C00E0090020DC090020D8090020D40900203D
:102B8C00D0090020184B1A68D1075CBF01221A60CB
:102B9C00164B1A68D2075CBF01221A60144B1A68D4
:102BAC00D0075CBF01221A60124B1A68D1075CBFB8
:102BBC0001221A60104B1A68D2075CBF01221A60FE
:102BCC000E4B1A68D0075CBF01221A600C4B1A68B6
:102BDC00D1075CBF01221A600A4B1A68D2075CBF8E
:102BEC0001221A60704700BF1C0A0020180A00203E
:102BFC00140A0020100A00200C0A0020080A0020E9
:102C0C00040A0020000A002010B5054C13462CB114
:102C1C000A4601460220AFF3008010BD204610BDCD
:102C2C000000000010B5431E0A44914204D011F874
:102C3C00014B03F8014FF8E710BD034602449342E1
:102C4C0002D003F8011BFAE77047000038B5124BAD
:102C5C0005461C68A36BD3B91820FFF773F943F230
:102C6C000E33A06303804AF6CD33438041F2342304
:102C7C0083804EF26D63C3804DF6EC6303810523B4
:102C8C0043810B23838101220023C0E90423A36B1E
:102C9C0000221D615A6138BD64000020194B10B52B
:102CAC001C68A36BD3B91820FFF74CF943F20E3311
:102CBC00A06303804AF6CD33438041F234238380F2
:102CCC004EF26D63C3804DF6EC63038105234381A3
:102CDC000B23838101220023C0E90423A16B0A4C3E
:102CEC000B6948695C43094A02FB0040A3FB0223C1
:102CFC000132034443F10003C1E9042323F00040F3
:102D0C0010BD00BF640000202DF451582D7F954C50
:102D1C00034613F8012B002AFBD1181A013870470F
:102D2C001D000A085D000A0889000A088D000A08BF
:102D3C00000000002C01000018000000F40100004D
:102D4C002C01000050000000626175640053657234
:102D5C0069616C0055534253657269616C31007442
:102D6C0079706500706172616D00636D64006964F7
:102D7C0000686E64007374726D0066696C74006C2C
:102D8C00766C0061646448616E646C657200726597
:102D9C006D6F766548616E646C657200656E756DFD
:102DAC0048616E646C657273004A534F4E53747273
:102DBC0065616D4C6F6748616E646C657200617023
:102DCC007000253031307520005D20002564002C0A
:102DDC00200028293A2000205B00636F6465203DA9
:102DEC00200025690064657461696C73203D2000C6
:102DFC000D0A0066006C6E00666E00636F64650001
:102E0C0064657461696C006E6F6E650074726163E9
:102E1C006500696E666F007761726E006572726F25
:102E2C00720070616E696300616C6C005A00252B36
:102E3C003033643A253032750025592D256D2D25FA
:102E4C00645425483A254D3A2553257A006173631D
:102E5C0074696D65000000000000000000000000B7
:102E6C0015220A0805220A0807220A080000000099
:102E7C0000000000D1220A0821230A082F230A0887
:102E8C00CD1F0A080D230A08D3220A08E9220A08D2
:102E9C001B230A08FF220A08CD220A0800000000A2
:102EAC000000000069240A08B9240A08C7240A088B
:102EBC00CD1F0A087D240A089F240A088B240A08BF
:102ECC00B3240A086B240A086F240A0800000000C7
:102EDC00000000006D250A08B7250A088F250A088E
:102EEC006F250A0897250A089F250A08A7250A08AE
:102EFC00AF250A0800000000000000009D260A080B
:102F0C0093260A0889260A0807260A085D200A085B
:102F1C007D260A0871260A0869260A085F260A080F
:102F2C0055260A0811260A080000000000000000BF
:102F3C00BD260A08C7260A08D1260A08DB260A0875
:102F4C00E5260A08F1260A08FD260A0809270A08B8
:102F5C0011270A081B270A0825270A080000000069
:102F6C000000000000000000000000000000000055
:102F7C000000000000000000000000000000000045
:102F8C000000000000000000000000000000000035
:102F9C000000000000000000000000000000000025
:102FAC000000000000000000000000000000000015
:102FBC000000000000000000000000000000000005
:102FCC00430000001D090A08111C0A08991F0A0871
:102FDC0069200A0879200A08B1200A08A9260A08DB
:102FEC0075270A0891280A0885290A08092A0A0857
:102FFC00CD2A0A08912B0A080000000000000000EE
:04300C0000000000C0
:0430100000000000BC
:10301400592E0A08000000006C2F0A088C2F0A0899
:10302400AC2F0A08000000000000000000000000AF
:1030340000000000CC2F0A0800000000000000007F
:10304400000000000000000000000000000000007C
:10305400000000000000000000000000000000006C
:10306400000000000000000000000000000000005C
:08307400000000000400002030
:10307C00FFFFFFFF00000102030405060708090A11
:10308C000B0C0D0E0F101112131415161718191A0C
:08309C001B1C1D1E1F20280053
:0430A4007856341214
:04000005080A001CC9
:00000001FF
