:02000004080AE8
:1000000000000A08B4390A080000060006000501CD
:080010000402E80500000000F5
:0400180040360A085C
:10001C0009480A4908B5884205D0094A824202D0EB
:10002C00121A03F089FA0748074A0021121A03F042
:10003C008EFA064808BD00BF0000002024390A08CB
:10004C0068000020680000202C0A00202C0A0020E8
:10005C0070B502F03DF9074B074C1E46E41AA40894
:10006C000025A54204D056F8253098470135F8E70D
:10007C0070BD00BFE4380A0818390A0800F01AB835
:10008C0008B500F055FCBDE8084002F0E3B801F0FB
:10009C00F9BF0078B0FA80F0400970470123037073
:1000AC00704710B50446006808B101F0EBFF20461C
:1000BC0010BD000008B50321002002F03DFC032117
:1000CC00012002F039FC0321022002F035FC03214F
:1000DC00084602F031FC0321042002F02DFC0E48EE
:1000EC0000F008FD0C4800F03BFD002318460B49BE
:1000FC0041F823000133B3F5807F4FF00002F7D1B4
:10010C0007490B60074B08211960074B1A60074B16
:10011C001A60074B1A6008BD7C0400207C0000208C
:10012C006C0000207400002090040020A00400202B
:10013C00A4040020F7B52D4D00232D4E2D4F2B6020
:10014C002968FF294CDC102391FBF3F313F0010F0A
:10015C0056F821C04FF47A7016D19CFBF0F49CFB3E
:10016C00F7F294FBF0F392FBF0FE00FB134300FB61
:10017C001E2200FB14C0C0B20090DBB2D2B289B216
:10018C001D4801F0A7FD27E09CFBF0F29CFBF7F467
:10019C0092FBF0F300FB132394FBF0F200FB1242F2
:1001AC00164C01F10F0E0C40002CBCBF04F1FF34B7
:1001BC0064F00F044FF47A70B8BF0134AEEB440115
:1001CC009CFBF0FE00FB1EC0C0B20090DBB2D2B2B2
:1001DC0089B2094801F07EFD2B6801332B60AFE733
:1001EC00054803B0BDE8F04000F0BABC6C0000203C
:1001FC007C00002040420F007C0400200F00008097
:10020C0044F6206001F0D4BF062800F2D580DFE868
:10021C0000F004081D466A86AC000023136001231D
:10022C0037E031F0020108D14FF0FF3313600123A6
:10023C00936002235160D36070476FF00F00002170
:10024C0010234FF0200C82E80B10704741B94FF08F
:10025C00FF331360012393600F235160D360704709
:10026C00012905D16FF0100313606FF00F0334E018
:10027C0002294FF0000309D14FF0FF3182E80A0048
:10028C00012393606FF00E03D36070476FF00F0182
:10029C0011605360102393601123D360704741B9F0
:1002AC004FF0FF3313600123936011235160D3602F
:1002BC007047012904D16FF00F031360002331E064
:1002CC00022905D16FF0100313604FF0FF3364E087
:1002DC006FF00F0313606FF00E03536000239360F5
:1002EC001023D360704741B94FF0FF3313600123E3
:1002FC00936010235160D36070476FF00F03012996
:10030C00136007D1002353604FF0FF339360102329
:10031C00D3607047022949D04FF0FF333DE039B923
:10032C00116001235360102393600F23D360704737
:10033C00012905D16FF0100313604FF0FF33CCE7A8
:10034C006FF00F030229136008D16FF00E03536096
:10035C00002393604FF0FF33D3607047002353604A
:10036C00012393601123D360704719B911604FF0CA
:10037C00FF338EE7012909D16FF00F004FF0FF31E9
:10038C0000234FF00F0C82E80B10704702290AD1A2
:10039C006FF0100313606FF00F0353600023936032
:1003AC000123D36070476FF00E031360002353607A
:1003BC00012393601023D36070470000034610B5EF
:1003CC001046A1B9062B51D8DFE803F00436040718
:1003DC0007363600274B034449E0022290FBF2F229
:1003EC00244B4FF4FA74134404FB00333FE001290F
:1003FC003CD1062B3AD8DFE803F0041F040A0A1F8D
:10040C002C004FF47A7141431A4B0B442FE0062415
:10041C0090FBF4F402F0E2FD0022174B02F044FED4
:10042C0003F054F8134A4FF47A73224403FB00236D
:10043C00124800FB04331AE0042190FBF1F10D4843
:10044C004FF47A73084403FB01030C4800FB01339F
:10045C000DE0042190FBF1F106484FF47A73084447
:10046C0003FB0103054C04FB013300E010BD1846EF
:10047C0010BD00BF00CA9A3B0000E83F40420F008D
:10048C002DE9F84F81468A46934698460A9F0024E8
:10049C003E1F00255D4510DA424649462046FFF7CF
:1004AC008DFF56F8043F834205D142465146204603
:1004BC00FFF784FF30600135ECE70134072CE7D1FE
:1004CC00BDE8F88F30B585B00446084611466A463B
:1004DC001D46FFF799FE009A002110465DF8213069
:1004EC0001319A42B8BF1A469842A8BF184604294F
:1004FC00F4D10B4B2244FF2A19600EDCC4420CD4FD
:10050C0000225DF82210214455F82130002B04DC28
:10051C000132042AF5D1012000E0002005B030BDE5
:10052C006C000020F0B50F4605461C4685B0002136
:10053C00384616466A46FFF767FE234600223946C0
:10054C002846FFF7BFFF48B100235DF82320013395
:10055C002A44042B44F82260F7D108E003465DF8E6
:10056C00232001332A44042B44F82260F7D105B030
:10057C00F0BD2DE9FF470F4690460646D8F800100F
:10058C006A4638469A46DDF830900D9DFFF73CFEE2
:10059C00002319465DF8232001333244042B45F81F
:1005AC002210F7D16A4651463846FFF72DFE2B46EE
:1005BC00524639463046FFF785FF044658B10023B2
:1005CC005DF8232001333244042B45F82290F7D1F7
:1005DC00C8F800A00EE038466A46D8F80010FFF7BD
:1005EC0013FE20465DF8203001303344042845F8D2
:1005FC002390F7D104B0BDE8F08700FB0220411E28
:10060C0003EB80039142A3F1040304DB53F8400C89
:10061C0001391860F6E770472DE9F74F00240546BD
:10062C00884691461F46A2460C9E4FEA810BAC426F
:10063C0038DA0C9B012203EB84100023AB4206DA60
:10064C0050F823100133002908BF0022F6E732B31B
:10065C000023AB4203DA46F823A00133F9E7D9F8BB
:10066C0000200523013292FBF3F303EB83039A4240
:10067C00C9F800200DD1386800280ADC0B4B4FF468
:10068C0080720093411C1423FFF7FAFE3B68013380
:10069C003B600C9B424629462046FFF7AEFF0134D7
:1006AC005E44C4E703B0BDE8F08F00BF7C000020BF
:1006BC002DE9F047914686B002AF04460D463A4606
:1006CC00194648469A46DDF83880119EFFF79CFD86
:1006DC0000231946206857F8232001330244042BC9
:1006EC0046F82210F6D1012D38D0022D63D0002D02
:1006FC0040F08F8020683346524649461030FFF751
:10070C00E1FE88B9226857F8253001351344042DD1
:10071C0046F82380F6D1102108460096109B0F9ABC
:10072C00FFF77AFF012075E02A46216857F825303B
:10073C0001350B44042D46F82320F6D10022216804
:10074C0057F8223001320B441033042A46F8238028
:10075C00F5D123680020103323605BE0206833461A
:10076C00524649460130FFF7ADFED0B10023194681
:10077C00206857F8232001330244042B46F822103A
:10078C00F6D10022216857F8223001320B44013394
:10079C00042A46F82380F5D1236800200133236016
:1007AC0038E0226857F8203001301344042846F80A
:1007BC002380F6D12DE02068334652464946013855
:1007CC00FFF780FEE0B100231946206857F823207C
:1007DC0001330244042B46F82210F6D10022216882
:1007EC0057F8223001320B4403F18043013B042AB9
:1007FC0046F82380F3D123680020013B236009E0F5
:10080C00226857F8203001301344042846F823801E
:10081C00F6D1002006B0BDE8F08700002DE9F04FBE
:10082C004FF00A0A0E4617461D4690FBFAFA85B0A1
:10083C00DDF83880DDF840B0DDF8449000245445F4
:10084C0071DA002002F0A2F80128014618D10F9BA2
:10085C00CDF80C900193CDF808B0CDF800802B6842
:10086C003A463046FFF724FF3048FFF763FC002080
:10087C0002F08CF8012851D1052001F099FCF6E723
:10088C00012002F083F8012819D10F9BCDF80C90B0
:10089C000193CDF808B0CDF800802B683A460221C0
:1008AC003046FFF705FF2148FFF744FC012002F01A
:1008BC006DF8012832D1052001F07AFCF6E7022010
:1008CC0002F064F8012804D105200A3401F070FC10
:1008DC0024E0032002F05AF8012817D12B68306865
:1008EC00022B8DE80003D4BF013300232A4639467E
:1008FC00FFF73FFE0D48FFF71DFC032002F046F802
:10090C0001280BD1052001F053FCF6E7042002F07E
:10091C003DF8012802D1002001F0CEFB0A2001F0A5
:10092C0047FC01348BE705B0BDE8F08F7C0000205C
:10093C002DE9F04F3B4C6FF0C70322683A4E5343FE
:10094C0087B003F2DC530720336001F0E3FE374B32
:10095C004FF00808364D374F2168C3F80080142239
:10096C00002381462B603860FFF728FD324B02468E
:10097C0049464046FFF7D6FD059508B9FFF740FC00
:10098C002D4DDFF8A0A02846FFF7D4FBD7F8008048
:10099C00216814224046FFF711FDD6F80090274B32
:1009AC0003958DE809000294214B42461F494846A5
:1009BC00FFF734FFD7F80080059B142221684046CE
:1009CC00D3F800B0FFF7FAFCDFF8709003958DE8D0
:1009DC00010202945B46424600211448FFF768FE70
:1009EC00C0B9144BDAF80010D3F80080142240463A
:1009FC00FFF7E4FCD6F800B00F4B8DE8010603932B
:100A0C0058460B4B42460949FFF708FF0A48FFF7C7
:100A1C0091FBCFE74FF47A7007B0BDE8F04F01F0CF
:100A2C00C7BB00BFA404002070000020740000208D
:100A3C0090040020780000207C000020A0040020FE
:100A4C0038B5114C114D01F07FF902230C224FF4F3
:100A5C008071204600F073F82A460D4920460D4C53
:100A6C0002F000F800232360A380A37123814FF6CA
:100A7C00FF730320638101F081FA2A462046BDE80A
:100A8C003840054901F0EEBF7C04002068000020CE
:100A9C00AD0A0A0894040020AF000A0801F094B9CA
:100AAC0010B50446C06808B101F0ECFA23781BB10C
:100ABC000021E07901F040FF204610BD38B5044616
:100ACC00C0680D4608B101F0DDFAA379062B0CBF06
:100ADC0004200320684380B2A08001F0CBFAE060D0
:100AEC0028B1A288002102F032FD658038BDA080BB
:100AFC00608038BD10B504460121C07901F01CFF9F
:100B0C000021E07901F029FF0123237010BD38B5D5
:100B1C00037805460C461BB10021C07901F00CFF8F
:100B2C002B78EC7153B1A4B22046012101F004FFE3
:100B3C002046BDE83840002101F00FBF38BD70B52C
:100B4C00044616460025837105700572C560056163
:100B5C00FFF7B4FF20463146FFF7D9FF204670BDA2
:100B6C00C368002B00F08E852DE9F0410446837993
:100B7C0086B0023BDBB2042B96BF294A322552F8D1
:100B8C002350FFF78BFF2369C01AA842F9D372B622
:100B9C00A179A3880229ADF80A30D4F80CE000F052
:100BAC007282072900F06F82062900F03284052931
:100BBC0000F0AB83082900F0A883002940F063857E
:100BCC00184A4FF40006BDF80A309BB2002B00F017
:100BDC0095830496BDF80A300EF10305033B9BB2D6
:100BEC00ADF80A309EF80030DBB28DF807309EF875
:100BFC000130DBB28DF806309EF80230DBB28DF896
:100C0C0008309DF807709DF806309DF808001B020F
:100C1C0043EA0743034303938DF805101BE100BF20
:100C2C0054360A08A8040020004600BF00BF00BFCD
:100C3C0000BF00BF00BF00BF00BF00BF00BF00BFB0
:100C4C0000BF00BF00BF00BF00BF00BF00BF00BFA0
:100C5C0000BF00BF00BF00BF00BF00BF00BF00BF90
:100C6C0000BF00BF00BF00BF00BF00BF00BF00BF80
:100C7C0000BF00BF00BF00BF00BF00BF00BF00BF70
:100C8C0000BF00BF00BF00BF00BF00BF00BF00BF60
:100C9C0000BF00BF00BF00BF00BF00BF00BF00BF50
:100CAC0000BF00BF00BF00BF00BF00BF00BF00BF40
:100CBC0000BF00BF00BF00BF00BF00BF00BF00BF30
:100CCC0000BF00BF00BF00BF00BF00BF00BF00BF20
:100CDC0000BF00BF00BF00BF00BF00BF00BF00BF10
:100CEC0000BF00BF00BF00BF00BF00BF00BF00BF00
:100CFC0000BF00BF00BF00BF00BF00BF00BF00BFF0
:100D0C0000BF00BF00BF00BF00BF00BF00BF00BFDF
:100D1C0000BF00BF00BF00BF00BF00BF00BF00BFCF
:100D2C0000BF00BF00BF00BF00BF00BF00BF00BFBF
:100D3C00E3791068C3EBC30300EB8307BF8850F85B
:100D4C0023305F83004600BF00BF00BF00BF00BF61
:100D5C0000BF00BF00BF00BF00BF00BF00BF00BF8F
:100D6C0000BF00BF00BF00BF00BF00BF00BF00BF7F
:100D7C0000BF00BF00BF00BF00BF00BF00BF00BF6F
:100D8C0000BF00BF00BF00BF00BF00BF00BF00BF5F
:100D9C0000BF00BF00BF00BF00BF00BF00BF00BF4F
:100DAC0000BF00BF00BF00BF00BF00BF00BF00BF3F
:100DBC0000BF00BF00BF00BF00BF00BF00BF00BF2F
:100DCC0000BF00BF00BF00BF00BF00BF00BF00BF1F
:100DDC0000BF00BF00BF00BF00BF00BF00BF00BF0F
:100DEC0000BF00BF00BF00BF00BF00BF00BF00BFFF
:100DFC0000BF00BF00BF00BF00BF00BF00BF00BFEF
:100E0C0000BF00BF00BF00BF00BF00BF00BF00BFDE
:100E1C0000BF00BF00BF00BF00BF00BF00BF00BFCE
:100E2C0000BF00BF00BF00BF00BF00BF00BF00BFBE
:100E3C0000BF00BF00BF00BF00BF00BF00BF049BCE
:100E4C005B0804939DF805300133DBB2172B8DF84A
:100E5C00053000F2DB82E3791068C3EBC30300EBCF
:100E6C008307BF8850F823301F830398049B1842D4
:100E7C007FF4DAAE004600BF00BF00BF00BF00BF6A
:100E8C0000BF00BF00BF00BF00BF00BF00BF00BF5E
:100E9C0000BF00BF00BF00BF00BF00BF00BF00BF4E
:100EAC0000BF00BF00BF00BF00BF00BF00BF00BF3E
:100EBC0000BF00BF00BF00BF00BF00BF00BF00BF2E
:100ECC0000BF00BF00BFE3791068C3EBC30300EBA6
:100EDC008307BF8850F823305F83004600BF00BFF4
:100EEC0000BF00BF00BF00BF00BF00BF00BF00BFFE
:100EFC0000BF00BF00BF00BF00BF00BF00BF00BFEE
:100F0C0000BF00BF00BF00BF00BF00BF00BF00BFDD
:100F1C0000BF00BF00BF00BF00BF00BF00BF00BFCD
:100F2C0000BF00BF00BF00BF00BF00BF00BF00BFBD
:100F3C0000BF00BF00BF00BF00BF00BF00BF00BFAD
:100F4C0000BF00BF00BF00BF00BF00BF00BF00BF9D
:100F5C0000BF00BF00BF00BF00BF00BF00BF00BF8D
:100F6C0000BF00BF00BF00BF00BF00BF00BF00BF7D
:100F7C0000BF00BF00BF00BF00BF00BF00BF00BF6D
:100F8C0000BF00BF00BF00BF00BF00BF00BF00BF5D
:100F9C0000BF00BF00BF00BF00BF00BF00BF00BF4D
:100FAC0000BF00BF00BF00BF00BF00BF00BF00BF3D
:100FBC0000BF00BF00BF00BF00BF00BF00BF00BF2D
:100FCC0000BF00BF00BF00BF00BF00BF00BF00BF1D
:100FDC0000BF00BF00BF00BF00BF00BF00BF00BF0D
:100FEC0000BF00BF00BF00BF00BF00BF00BF00BFFD
:100FFC0000BF00BF00BF00BF00BF00BF00BF00BFED
:10100C0000BF00BF00BF00BF00BF00BF00BF00BFDC
:10101C0000BF00BF00BF00BF00BF00BF00BF00BFCC
:10102C0000BF00BF00BF00BF00BF00BF00BF00BFBC
:10103C0000BF00BF00BF00BF00BF00BF00BF00BFAC
:10104C0000BF00BF00BF00BF00BF00BF00BF00BF9C
:10105C0000BF00BF00BF00BF00BF00BF00BF00BF8C
:10106C0000BF00BF00BF00BF00BF00BF00BF00BF7C
:10107C0000BF00BF00BF00BF00BF00BF00BF00BF6C
:10108C0000BF00BFDBE6BDF80A30174A9BB24FF435
:10109C0000050026002B00F031810495BDF80A30C4
:1010AC000EF10301033B9BB2ADF80A309EF8003001
:1010BC00DBB28DF806309EF80130DBB28DF80730CC
:1010CC009EF80230DBB28DF808309DF806309DF8A2
:1010DC0007009DF80870000240EA03433B4303936A
:1010EC008DF8056080E000BFA8040020004600BF1A
:1010FC0000BF00BF00BF00BF00BF00BF00BF00BFEC
:10110C0000BF00BF00BF00BF00BF00BF00BF00BFDB
:10111C0000BF00BF00BF00BF00BF00BF00BF00BFCB
:10112C0000BF00BF00BF00BF00BF00BF00BF00BFBB
:10113C0000BF00BF00BF00BF00BF00BF00BF00BFAB
:10114C0000BF00BF00BF00BF00BF00BF00BF00BF9B
:10115C0000BF00BF00BF00BF00BF00BF00BF00BF8B
:10116C0000BF00BF00BF00BF00BF00BF00BF00BF7B
:10117C0000BF00BF00BF00BF00BF00BF00BF00BF6B
:10118C0000BF00BF00BFE3791068C3EBC30300EBE3
:10119C008307BF8850F823305F83004600BF00BF31
:1011AC0000BF00BF00BF00BF00BF00BF00BF00BF3B
:1011BC0000BF00BF00BF00BF00BF00BF00BF00BF2B
:1011CC0000BF00BF00BF00BF00BF00BF00BF00BF1B
:1011DC00049B5B0804939DF805300133DBB2172B9D
:1011EC008DF8053000F28380E3791068C3EBC303FC
:1011FC0000EB8307BF8850F823301F830398049BB0
:10120C0018427FF473AF004600BF00BF00BF00BFA1
:10121C0000BF00BF00BF00BF00BF00BF00BF00BFCA
:10122C0000BF00BF00BF00BF00BF00BF00BFE3791D
:10123C001068C3EBC30300EB8307BF8850F823305F
:10124C005F83004600BF00BF00BF00BF00BF00BFF0
:10125C0000BF00BF00BF00BF00BF00BF00BF00BF8A
:10126C0000BF00BF00BF00BF00BF00BF00BF00BF7A
:10127C0000BF00BF00BF00BF00BF00BF00BF00BF6A
:10128C0000BF00BF00BF00BF00BF00BF00BF00BF5A
:10129C0000BF00BF00BF00BF00BF00BF00BF00BF4A
:1012AC0000BF00BF00BF00BF00BF00BF00BF00BF3A
:1012BC0000BF00BF00BF00BF00BF00BF00BF00BF2A
:1012CC0000BF00BF00BF00BF00BF00BF00BF00BF1A
:1012DC0000BF00BF00BF00BF00BF00BF00BF00BF0A
:1012EC0000BF00BF00BF00BF00BF00BF70E7BDF86C
:1012FC000A308E469BB2002B7FF4CFAE62B6FFF75E
:10130C00CDFB206106B0BDE8F0815E4B5E4A18460D
:10131C0011684FF400080027BDF80A2092B2002A89
:10132C00ECD0CDF81080BDF80A200EF10305033A7D
:10133C0092B2ADF80A209EF80020D2B28DF80620A9
:10134C009EF80120D2B28DF807209EF80220D2B26E
:10135C008DF808209DF806209DF807E09DF808C040
:10136C004FEA0E2E4EEA024242EA0C0203928DF82C
:10137C000570E2795E68C2EBC20201EB820EBEF828
:10138C0004E051F822200596A2F818E0039E049A76
:10139C00164223D05A68059E921B4F2AFAD9E2793D
:1013AC00C2EBC20201EB820EBEF804E051F822201F
:1013BC00A2F81AE0426805925A68059E921B072A09
:1013CC00FAD9049A520804929DF805200132D2B23F
:1013DC00172A8DF80520CCD9AE469DE75A68059E94
:1013EC00921B182AFAD9E279C2EBC20201EB820EE7
:1013FC00BEF804E051F82220A2F81AE042680592E7
:10140C005A68059E921B452AFAD9DAE7AE46FFF7D1
:10141C00DABB1D4A4FF000450026BDF80A309BB2DE
:10142C00002B3FF46BAF0495BDF80A300EF10401AC
:10143C00043B9BB2ADF80A309EF80030DBB28DF85D
:10144C0007309EF80130DBB28DF806309EF8023082
:10145C00DBB28DF808309EF80330DBB28DF8093022
:10146C009DF807309DF806709DF808E03F049DF844
:10147C00090047EA0363034343EA0E2303938DF801
:10148C0005607EE0001000E0A8040020004600BFCC
:10149C0000BF00BF00BF00BF00BF00BF00BF00BF48
:1014AC0000BF00BF00BF00BF00BF00BF00BF00BF38
:1014BC0000BF00BF00BF00BF00BF00BF00BF00BF28
:1014CC0000BF00BF00BF00BF00BF00BF00BF00BF18
:1014DC0000BF00BF00BF00BF00BF00BF00BF00BF08
:1014EC0000BF00BF00BF00BF00BF00BF00BF00BFF8
:1014FC0000BF00BF00BF00BF00BFE3791068C3EBA3
:10150C00C30300EB8307BF8850F823305F8300468A
:10151C0000BF00BF00BF00BF00BF00BF00BF00BFC7
:10152C0000BF00BF00BF00BF00BF00BF00BF00BFB7
:10153C0000BF00BF00BF00BF00BF00BF00BF00BFA7
:10154C0000BF00BF00BF00BF00BF00BF00BF00BF97
:10155C0000BF00BF00BF00BF00BF00BF00BF00BF87
:10156C0000BF00BF00BF00BF00BF00BF049B5B08F3
:10157C0004939DF805300133DBB21F2B8DF8053039
:10158C007ED8E3791068C3EBC30300EB8307BF88F5
:10159C0050F823301F830398049B18427FF476AFD6
:1015AC00004600BF00BF00BF00BF00BF00BF00BFB0
:1015BC0000BF00BF00BF00BF00BF00BF00BF00BF27
:1015CC0000BF00BF00BF00BFE3791068C3EBC303CB
:1015DC0000EB8307BF8850F823305F83004600BFC1
:1015EC0000BF00BF00BF00BF00BF00BF00BF00BFF7
:1015FC0000BF00BF00BF00BF00BF00BF00BF00BFE7
:10160C0000BF00BF00BF00BF00BF00BF00BF00BFD6
:10161C0000BF00BF00BF00BF00BF00BF00BF00BFC6
:10162C0000BF00BF00BF00BF00BF00BF00BF00BFB6
:10163C0000BF00BF00BF00BF00BF00BF00BF00BFA6
:10164C0000BF00BF00BF00BF00BF00BF00BF00BF96
:10165C0000BF00BF00BF00BF00BF00BF00BF00BF86
:10166C0000BF00BF00BF00BF00BF00BF00BF00BF76
:10167C0000BF00BF00BF00BF00BF00BF00BF75E7C9
:10168C008E46CAE67047032900F02E811E4A4FF49D
:10169C0000050026BDF80A309BB2002B3FF42EAE9D
:1016AC000495BDF80A30E079033B9BB2ADF80A30E3
:1016BC009EF800300EF10301DBB28DF807309EF876
:1016CC000130C0EBC000DBB28DF808309EF8023060
:1016DC00D2F800E0DBB28DF806309DF807709DF86B
:1016EC0008300EEB800C1B0243EA07439DF8067092
:1016FC00BCF804C05EF820003B4303938DF80560F2
:10170C00A0F81AC07DE000BFA8040020049B5B0871
:10171C000493004600BF00BF00BF00BF00BF00BF66
:10172C0000BF00BF00BF00BF00BF00BF00BF00BFB5
:10173C0000BF00BF00BF00BF00BF00BF00BF00BFA5
:10174C0000BF00BF00BF00BF00BF00BF00BF00BF95
:10175C0000BF00BF00BF00BF00BF00BF00BF00BF85
:10176C0000BF00BF00BF00BF00BF00BF00BF00BF75
:10177C0000BF00BF00BF00BF00BF00BF00BF00BF65
:10178C0000BF00BF00BF00BF00BF00BF00BF00BF55
:10179C0000BF00BF00BF00BFE07917689DF805309F
:1017AC00C0EBC00007EB800EBEF804E057F8200039
:1017BC000133DBB28DF80530A0F818E0004600BF0D
:1017CC0000BF00BF00BF00BF00BF00BF00BF00BF15
:1017DC0000BF00BF00BF00BF00BF00BF00BF00BF05
:1017EC0000BF00BF00BF9DF80530182B7AD0E379FD
:1017FC001068C3EBC30300EB8307BF8850F823309A
:10180C005F830398049B184280D1004600BF00BF41
:10181C0000BF00BF00BF00BF00BF00BF00BF00BFC4
:10182C0000BF00BF00BF00BF00BF00BFE37910685E
:10183C00C3EBC30300EB8307BF8850F823301F832F
:10184C009DF805300133DBB28DF80530049B5B0845
:10185C000493004600BF00BF00BF00BF00BF00BF25
:10186C0000BF00BF00BF00BF00BF00BF00BF00BF74
:10187C0000BF00BF00BF00BF00BF00BF00BF00BF64
:10188C0000BF00BF00BF00BF00BF00BF00BF00BF54
:10189C0000BF00BF00BF00BF00BF00BF00BF00BF44
:1018AC0000BF00BF00BF00BF00BF00BF00BF00BF34
:1018BC0000BF00BF00BF00BF00BF00BF00BF00BF24
:1018CC0000BF00BF00BF00BF00BF00BF00BF00BF14
:1018DC0000BF00BF00BF00BF00BF00BF9DF80530B8
:1018EC00182B84D18E46D5E6174A4FF400050026F6
:1018FC00BDF80A309BB2002B3FF400AD0495BDF847
:10190C000A300EF10301033B9BB2ADF80A309EF88E
:10191C000030DBB28DF807309EF80130DBB28DF869
:10192C0006309EF80230DBB28DF808309DF8077057
:10193C009DF806309DF808001B0243EA0743034359
:10194C0003938DF80560E0E0A8040020004600BF7A
:10195C0000BF00BF00BF00BF00BF00BF00BF00BF83
:10196C0000BF00BF00BF00BF00BF00BF00BF00BF73
:10197C0000BF00BF00BF00BF00BF00BF00BF00BF63
:10198C0000BF00BF00BF00BF00BF00BF00BF00BF53
:10199C0000BF00BF00BF00BF00BF00BF00BF00BF43
:1019AC0000BF00BF00BF00BF00BF00BF00BF00BF33
:1019BC0000BF00BF00BF00BF00BF00BF00BF00BF23
:1019CC0000BF00BF00BF00BF00BF00BF00BF00BF13
:1019DC0000BF00BF00BF00BF00BF00BF00BF00BF03
:1019EC0000BF00BF00BF00BF00BF00BF00BF00BFF3
:1019FC0000BF00BF00BF00BF00BF00BF00BF00BFE3
:101A0C0000BF00BF00BF00BF00BF00BF00BF00BFD2
:101A1C0000BF00BF00BF00BF00BF00BF00BF00BFC2
:101A2C0000BF00BF00BF00BF00BF00BF00BF00BFB2
:101A3C0000BF00BF00BF00BF00BF00BF00BF00BFA2
:101A4C0000BF00BF00BF00BF00BF00BF00BF00BF92
:101A5C0000BF00BF00BF00BF00BF00BF00BF00BF82
:101A6C0000BF00BF00BF00BF00BF00BF00BFE379D5
:101A7C001068C3EBC30300EB8307BF8850F8233017
:101A8C005F83004600BF00BF00BF00BF00BF00BFA8
:101A9C0000BF00BF00BF00BF00BF00BF00BF00BF42
:101AAC0000BF00BF00BF00BF00BF00BF00BF00BF32
:101ABC0000BF00BF00BF00BF00BF00BF00BF00BF22
:101ACC0000BF00BF00BF00BF00BF00BF00BF00BF12
:101ADC0000BF00BF00BF00BF00BF00BF00BF00BF02
:101AEC0000BF00BF00BF00BF00BF00BF00BF00BFF2
:101AFC0000BF049B5B0804939DF805300133DBB2F7
:101B0C00172B8DF8053000F2E380E3791068C3EBF6
:101B1C00C30300EB8307BF8850F823301F8303985F
:101B2C00049B18427FF412AF004600BF00BF00BFF9
:101B3C0000BF00BF00BF00BF00BF00BF00BF00BFA1
:101B4C0000BF00BF00BF00BF00BF00BF00BF00BF91
:101B5C0000BF00BF00BF00BF00BF00BF00BF00BF81
:101B6C0000BF00BF00BF00BF00BF00BF00BF00BF71
:101B7C0000BF00BF00BF00BF00BF00BF00BF00BF61
:101B8C0000BF00BF00BF00BF00BF00BF00BF00BF51
:101B9C0000BF00BF00BF00BF00BF00BF00BF00BF41
:101BAC0000BF00BF00BF00BF00BFE3791068C3EBEC
:101BBC00C30300EB8307BF8850F823305F830046D4
:101BCC0000BF00BF00BF00BF00BF00BF00BF00BF11
:101BDC0000BF00BF00BF00BF00BF00BF00BF00BF01
:101BEC0000BF00BF00BF00BF00BF00BF00BF00BFF1
:101BFC0000BF00BF00BF00BF00BF00BF00BF00BFE1
:101C0C0000BF00BF00BF00BF00BF00BF00BF00BFD0
:101C1C0000BF00BF00BF00BF00BF00BF00BF00BFC0
:101C2C0000BF00BF00BF00BF00BF00BF00BF00BFB0
:101C3C0000BF00BF00BF00BF00BF00BF00BF00BFA0
:101C4C0000BF00BF00BF00BF00BF00BF00BF00BF90
:101C5C0000BF00BF00BF00BF00BF00BF00BF00BF80
:101C6C0000BF00BF00BF00BF00BF00BF00BF00BF70
:101C7C0000BF00BF00BF00BF00BF00BF00BF00BF60
:101C8C0000BF00BF00BF00BF00BF00BF00BF00BF50
:101C9C0000BF00BF00BF00BF00BF00BF00BF00BF40
:101CAC0000BF00BF00BF00BF00BF00BF00BF00BF30
:101CBC0000BF00BF00BF00BF00BF00BF00BF00BF20
:101CCC0000BF00BF00BF00BF00BF00BF00BF10E7D8
:101CDC008E460DE6F0B544889DF814508C4227D9F9
:101CEC00047A44B1624363436C43C2F30722C3F3E7
:101CFC000723C4F307258779C66801EB4101082F38
:101D0C0006EB010411D80120B84010F4D27F08D1A1
:101D1C00C0060AD5FF2A08BFFE2272546570A37054
:101D2C00F0BD73546270A570F0BD72546370A570F1
:101D3C00F0BD000008B500F007F800F005F8014B05
:101D4C00186008BDA804002008B5024B1B681B686E
:101D5C00019308BDB001060808B5024B1B689B68CF
:101D6C00019308BDB001060808B5024B1B68DB687F
:101D7C00019308BDB001060808B5024B1B681B692E
:101D8C00019308BDB001060808B5024B1B685B69DE
:101D9C00019308BDB001060808B5024B1B68DB694E
:101DAC00019308BDB401060808B5024B1B681B6AF9
:101DBC00019308BDB401060808B5024B1B685B68AB
:101DCC00019308BD9C01060808B5024B1B681B69F2
:101DDC00019308BD9C01060808B5024B1B685B69A2
:101DEC00019308BD9C01060808B5024B1B68DB6912
:101DFC00019308BDB801060808B5024B1B685B6C63
:101E0C00019308BDD001060808B5024B1B689B6CFA
:101E1C00019308BDD001060808B5024B1B689B69ED
:101E2C00019308BDC401060808B5024B1B685B6A28
:101E3C00019308BDC401060808B5024B1B689B6AD8
:101E4C00019308BDC401060808B5024B1B68DB6A88
:101E5C00019308BDC401060808B5024B1B681B6B37
:101E6C00019308BDC401060808B5024B1B685B6BE7
:101E7C00019308BDC401060808B5024B1B689B6B97
:101E8C00019308BDC401060808B5024B1B681B6C06
:101E9C00019308BDC401060808B5024B1B681B6EF4
:101EAC00019308BDAC01060808B5024B1B685B6EBC
:101EBC00019308BDAC01060808B5024B1B689B6E6C
:101ECC00019308BDAC01060808B5024B1B68DB6E1C
:101EDC00019308BDAC01060808B5024B1B681B6FCB
:101EEC00019308BDAC01060808B5024B1B685B6F7B
:101EFC00019308BDAC01060808B5034B1B68D3F869
:101F0C008030019308BD0000AC01060808B5024BF7
:101F1C001B681B68019308BDD801060808B5024B65
:101F2C001B681B69019308BDD801060808B5024B54
:101F3C001B685B69019308BDD801060808B5024B04
:101F4C001B689B69019308BDD801060808B5024BB4
:101F5C001B68DB69019308BDD801060808B5024B64
:101F6C001B681B6A019308BDD801060808B5024B13
:101F7C001B689B6C019308BDC001060808B5024B99
:101F8C001B685B68019308BDA401060808B5024BE9
:101F9C001B685B69019308BDA401060808B5034BD7
:101FAC001B68D3F89030019308BD0000A40106080B
:101FBC0008B5034B1B68D3F89C30019308BD000097
:101FCC00A401060808B5024B1B685B68019308BDA9
:101FDC00C801060808B5024B1B689B68019308BD35
:101FEC00C801060808B5024B1B68DB68019308BDE5
:101FFC00C801060808B5024B1B681B69019308BD94
:10200C00C801060808B5024B1B685B69019308BD43
:10201C00C801060808B5024B1B689B69019308BDF3
:10202C00C801060808B5024B1B68DB69019308BDA3
:10203C00C801060808B5024B1B681B6A019308BD52
:10204C00C801060808B5024B1B681B6B019308BD41
:10205C00C801060808B5024B1B685B6B019308BDF1
:10206C00C801060808B5024B1B68DB6B019308BD61
:10207C00CC01060808B5024B1B681B68019308BD10
:10208C00A001060808B5024B1B685B68019308BDEC
:10209C00A001060870B504460E46002540F8085FFE
:1020AC00FFF7AAFE30462670FFF776FE65602046E5
:1020BC0070BD0078FFF778BEFFF796BE4FF6FF7342
:1020CC0010B5084C00202060A080A0712081638195
:1020DC00FFF754FF2046BDE81040034A034900F0C7
:1020EC00C1BC00BFAC04002068000020AF000A088F
:1020FC00F8B506460D468F180024BD420CD0336847
:10210C0015F8011B9B6830469847002801DB0444F6
:10211C00F3E7002C08BF04462046F8BD70B5054611
:10212C000C46084649B101F07DFA2B68024621465F
:10213C002846BDE87040DB68184770BD03689B6893
:10214C001847012A98BF0A2230B50B468BB00021E4
:10215C008DF824100DF12304B3FBF2F505FB1233BB
:10216C00DBB2092B94BF30333733DBB2214604F892
:10217C0001392B46002DEFD1FFF7D0FF0BB030BD4E
:10218C0000231A4619464068FFF73CBF014A024B30
:10219C001A607047DE360A08B8040020024B1A6831
:1021AC00024B1A60704700BF00000020BC040020E6
:1021BC000021FFF7EBBE10B58368044613B1032270
:1021CC0001469847204610BD10B50446FFF7F3FFB3
:1021DC00204610BD034800238360034A034900F0E6
:1021EC0041BC00BFC004002068000020D5210A08B3
:1021FC0008B5144B33B100F067F903681B699847B5
:10220C00002816DC104B33B100F01CFA03681B6974
:10221C009847002810DC0D4B0BB1AFF300800C4B32
:10222C007BB100F08DF903681B699847002806DC28
:10223C0008BDAFF30080E5E7AFF30080EBE7AFF349
:10224C00008008BD0000000000000000000000003D
:10225C000000000008B5FFF7CBFFFFF7BDFD014BF9
:10226C00186008BD540900200248034A0349121A99
:10227C0001F062B9004002400440024020390A08D3
:10228C0007B5002300931A466FF07701FFF790FE15
:10229C0003B05DF804FB000007B543880A2B08D097
:1022AC00502B09D1094B1B683BB103B05DF804EB13
:1022BC001847FFF7E5FF06E0002300931A466FF07E
:1022CC007701FFF775FE03B05DF804FBD004002026
:1022DC0038B5104C104D2368AB42104B0CBF01228B
:1022EC0000221A7002D0FFF7BFFF2560FFF764FDD4
:1022FC00044601F035F90A4B13B12046AFF30080C8
:10230C0000210748FFF7AEFEBDE838400021054824
:10231C00FFF744BE004002401E1C279AD404002044
:10232C0000000000A5220A08704710B504461821C9
:10233C0000F0A6FB204610BDF8B50F4600F10806CC
:10234C00051D002416F8011D0A223846FFF7F9FE78
:10235C00AE42044407D0002CF4D02E213846FFF7AF
:10236C00EDFE0444EEE72046F8BD000010B504462F
:10237C00044B112240F8043B002101F0E8F8204600
:10238C0010BD00BF80370A080346074A10B543F852
:10239C00042B01F1100251F8044B914243F8044B09
:1023AC00F9D10A781A7010BD80370A08024A4160C8
:1023BC00026004220275704780370A0810B59DF838
:1023CC00084044EA032343EA024242EA016104233F
:1023DC004160037510BD000037B5044D05609DF8D4
:1023EC0018500095FFF7EAFF03B030BD80370A089C
:1023FC0041747047704708B50021007CFFF79EFDC3
:10240C0030EA200028BF4FF0FF3008BD08B501218D
:10241C00007CFFF793FD30EA200028BF4FF0FF301F
:10242C0008BD08B5007CFFF781FD20EAE07008BD0F
:10243C0008B5007CFFF772FD20EAE07008BD007C57
:10244C00FFF78CBD10B50446142100F019FB204693
:10245C0010BD38B50446007C0D46FFF767FD00281B
:10246C0001DC607C28B12946207CFFF76FFD20EA57
:10247C00E07038BD10B50446002363604FF47A73E6
:10248C00A360054B08462360012321746374114635
:10249C00FFF73CFD204610BD94370A0810B50446E2
:1024AC001422002101F053F8054B20466360054BC4
:1024BC00E36040F2011323818123238210BD00BF0E
:1024CC005D050020DC04002030B50E4D87B001A85E
:1024DC00FFF7E4FF296811F0010410D12846FDF73D
:1024EC00D8FD60B101AA21460748FFF7C3FF284673
:1024FC00FDF7D4FD054A0649034800F0B3FA02483B
:10250C0007B030BDD8040020600600206800002011
:10251C0001240A0810B504461422002101F017F812
:10252C00054B20466360054BE36040F201132381A9
:10253C008123238210BD00BF1007002078060020E5
:10254C0010B50E4C86B001A8FFF7E4FF2368DB073B
:10255C0010D42046FDF79DFD60B101AA0121084869
:10256C00FFF788FF2046FDF799FD064A0649044807
:10257C0000F078FA024806B010BD00BF74060020C7
:10258C00FC0600206800002001240A0870474174F2
:10259C00704708B5007CFFF777FC20EAE07008BDB7
:1025AC0008B5007CFFF748FC20EAE07008BD08B5D0
:1025BC00007CFFF751FC30EA200028BF4FF0FF30C1
:1025CC0008BD08B5007CFFF73FFC30EA200028BFAF
:1025DC004FF0FF3008BD007CFFF746BC10B5044639
:1025EC00142100F04DFA204610BD70B5457C044610
:1025FC000E4625B9007CFFF747FC002805DD314667
:10260C00207CBDE87040FFF70FBC284670BD000071
:10261C0010B5044608461146002262604FF47A72E7
:10262C00A260054A20742260012262741A46FFF7E8
:10263C00F3FB204610BD00BFC4370A08007CFFF72F
:10264C001BBC000038B50C4D296811F0010411D1E8
:10265C002846FDF71EFD68B1084A2146084B09487B
:10266C00FFF7D6FF2846FDF719FD074A074905482D
:10267C0000F0F8F9034838BDAC080020B008002081
:10268C0028080020140800206800002099250A085A
:10269C007047F8B5064615460C468F18BC4206D056
:1026AC00336814F8011B9B6830469847F6E72846B8
:1026BC00F8BD0022007CFFF7EFBB0021007CFFF788
:1026CC00F3BB0021007CFFF7F7BB0021007CFFF778
:1026DC00FBBB0021007CFFF7FFBB10B504461421A7
:1026EC0000F0CEF9204610BD10B5044600236360FF
:1026FC004FF47A73A360044B21740846236011468F
:10270C00FFF7FAFB204610BDF4370A080021007CC5
:10271C00FFF7EABB10B5044630B100F049FF90FB5F
:10272C00F4F303FB140010BD10BD002211464068E9
:10273C00FFF760BCF0B5164689B011220F4604466F
:10274C00002103A800F003FF304600F06BFF0025CA
:10275C00009581B27B6803AA3046FFF707FC20B1D5
:10276C0029462046FFF722FE03E003A92046FFF787
:10277C000BFE204609B0F0BD002211464068FFF761
:10278C0059BC002211464068FFF764BC0022406827
:10279C00FFF758BC002281F001014068FFF742BCF2
:1027AC0000231A4619464068FFF734BC0022114634
:1027BC004068FFF70FBC002202214068FFF712BCF3
:1027CC0000231A464068FFF7FDBB0000024B0422B1
:1027DC005A60024A1A607047340900201C380A08F3
:1027EC0000231A464068FFF7EDBB00220221406827
:1027FC00FFF7F8BB002211464068FFF7EBBB002245
:10280C0011464068FFF7F6BB00231A46194640688C
:10281C00FFF7F8BB00231A4619464068FFF7FABBCE
:10282C00002281F001014068FFF7FCBB00224068E8
:10283C00FFF708BC002211464068FFF70BBC0022D2
:10284C0011464068FFF7F6BB70B516468EB00446CD
:10285C0008A8FFF78BFD1122002103A800F077FEDA
:10286C00304600F0DFFE00250A4B009581B25B6814
:10287C0003AA3046FFF77AFB20B129462046FFF722
:10288C0095FD03E003A92046FFF77EFD20460EB020
:10289C0070BD00BF34090020024B034A1A600022AD
:1028AC005A6070473C09002050380A0810B504469D
:1028BC00806808B1FFF7A8FA204610BD70B51A4E13
:1028CC000446316811F001050FD13046FDF7E1FBEC
:1028DC0058B129461548FFF7DDFB3046FDF7DEFB06
:1028EC00134A1449114800F0BDF81048FFF7E1FBFA
:1028FC0028B1A4F10D03022B01D8002070BD00F00B
:10290C008BF8FFF703FF08B1012CF6D9FFF79AFEFD
:10291C00FFF794FE18B1A4F11203012BEDD9172C7B
:10292C008CBF0020012070BD440900204809002004
:10293C0068000020B9280A08172838B504460D4647
:10294C000AD8FF2908D0FFF7B9FF28B1294620463D
:10295C00BDE83840FFF700BA38BD38B504460D461F
:10296C00FFF702FAFF2810D0062804D84D2323FACB
:10297C0000F0C30709D42046FFF7A0FF28B1294671
:10298C002046BDE83840FFF7F7B938BD10B504460E
:10299C00FFF7EAF90438C0B2012808D92046FFF73E
:1029AC008DFF20B12046BDE81040FFF7EDB90020A7
:1029BC0010BD000013B5084C00231A4619460093AD
:1029CC002046FFF709FD2046044A054902B0BDE840
:1029DC00104000F047B800BF5809002068000020E4
:1029EC0035230A0870B5044614252A46094E0021E1
:1029FC0000F0ADFD258020253146A56025612846D7
:102A0C0000F040F831466060284600F03BF8E0608A
:102A1C00204670BD7C380A0830B50E4D87B0296849
:102A2C0011F0010413D12846FDF733FB78B101A84E
:102A3C00FFF7D8FF01AA21460748FFF755FE2846A5
:102A4C00FDF72CFB054A0649034800F00BF8024839
:102A5C0007B030BD70090020740900206800002008
:102A6C009D260A080B460146184600F057BD00008B
:102A7C00024B1868BFF35F8F704700BF88090020B6
:102A8C00FDF705BB00F000B810B5002814BF0446D4
:102A9C0001242046FFF7EEFA20B9FFF7E9FF08B151
:102AAC008047F6E710BD0000184B1A68D1075CBFD1
:102ABC0001221A60164B1A68D2075CBF01221A60F9
:102ACC00144B1A68D0075CBF01221A60124B1A68AB
:102ADC00D1075CBF01221A60104B1A68D2075CBF89
:102AEC0001221A600E4B1A68D0075CBF01221A60D3
:102AFC000C4B1A68D1075CBF01221A600A4B1A688A
:102B0C00D2075CBF01221A60704700BFA8090020E1
:102B1C00A4090020A00900209C090020980900208D
:102B2C0094090020900900208C090020244B1A687D
:102B3C00D0075CBF01221A60224B1A68D1075CBF18
:102B4C0001221A60204B1A68D2075CBF01221A605E
:102B5C001E4B1A68D0075CBF01221A601C4B1A6806
:102B6C00D1075CBF01221A601A4B1A68D2075CBFEE
:102B7C0001221A60184B1A68D0075CBF01221A6038
:102B8C00164B1A68D1075CBF01221A60144B1A68E5
:102B9C00D2075CBF01221A60124B1A68D0075CBFC7
:102BAC0001221A60104B1A68D1075CBF01221A600F
:102BBC000E4B1A68D2075CBF01221A60704700BF27
:102BCC00D8090020D4090020D0090020CC0900200D
:102BDC00C8090020C4090020C0090020BC0900203D
:102BEC00B8090020B4090020B0090020AC0900206D
:102BFC00244B1A68D0075CBF01221A60224B1A685A
:102C0C00D1075CBF01221A60204B1A68D2075CBF47
:102C1C0001221A601E4B1A68D0075CBF01221A6091
:102C2C001C4B1A68D1075CBF01221A601A4B1A6838
:102C3C00D2075CBF01221A60184B1A68D0075CBF20
:102C4C0001221A60164B1A68D1075CBF01221A6068
:102C5C00144B1A68D2075CBF01221A60124B1A6817
:102C6C00D0075CBF01221A60104B1A68D1075CBFF9
:102C7C0001221A600E4B1A68D2075CBF01221A603F
:102C8C00704700BF080A0020040A0020000A002038
:102C9C00FC090020F8090020F4090020F0090020AC
:102CAC00EC090020E8090020E4090020E0090020DC
:102CBC00DC090020184B1A68D1075CBF01221A608E
:102CCC00164B1A68D2075CBF01221A60144B1A68A3
:102CDC00D0075CBF01221A60124B1A68D1075CBF87
:102CEC0001221A60104B1A68D2075CBF01221A60CD
:102CFC000E4B1A68D0075CBF01221A600C4B1A6885
:102D0C00D1075CBF01221A600A4B1A68D2075CBF5C
:102D1C0001221A60704700BF280A0020240A0020F4
:102D2C00200A00201C0A0020180A0020140A002087
:102D3C00100A00200C0A002081F0004102E000BFC4
:102D4C0083F0004330B54FEA41044FEA430594EA5F
:102D5C00050F08BF90EA020F1FBF54EA000C55EA9A
:102D6C00020C7FEA645C7FEA655C00F0E2804FEA6B
:102D7C005454D4EB5555B8BF6D420CDD2C4480EA4D
:102D8C00020281EA030382EA000083EA010180EA7D
:102D9C00020281EA0303362D88BF30BD11F0004FCB
:102DAC004FEA01314FF4801C4CEA113102D0404201
:102DBC0061EB410113F0004F4FEA03334CEA13333C
:102DCC0002D0524263EB430394EA050F00F0A78054
:102DDC00A4F10104D5F1200E0DDB02FA0EFC22FA4F
:102DEC0005F2801841F1000103FA0EF2801843FA43
:102DFC0005F359410EE0A5F120050EF1200E012A34
:102E0C0003FA0EFC28BF4CF0020C43FA05F3C01871
:102E1C0051EBE37101F0004507D54FF0000EDCF1EA
:102E2C00000C7EEB00006EEB0101B1F5801F1BD393
:102E3C00B1F5001F0CD349085FEA30004FEA3C0C97
:102E4C0004F101044FEA445212F5800F80F09A808D
:102E5C00BCF1004F08BF5FEA500C50F1000041EB91
:102E6C00045141EA050130BD5FEA4C0C404141EB95
:102E7C00010111F4801FA4F10104E9D191F0000FBC
:102E8C0004BF01460020B1FA81F308BF2033A3F13F
:102E9C000B03B3F120020CDA0C3208DD02F1140C36
:102EAC00C2F10C0201FA0CF021FA02F10CE002F171
:102EBC001402D8BFC2F1200C01FA02F120FA0CFC6A
:102ECC00DCBF41EA0C019040E41AA2BF01EB0451B3
:102EDC00294330BD6FEA04041F3C1CDA0C340EDCB1
:102EEC0004F11404C4F1200220FA04F001FA02F3F4
:102EFC0040EA030021FA04F345EA030130BDC4F1B2
:102F0C000C04C4F1200220FA02F001FA04F340EAA6
:102F1C000300294630BD21FA04F0294630BD94F057
:102F2C00000F83F4801306BF81F480110134013D3E
:102F3C004EE77FEA645C18BF7FEA655C29D094EAAF
:102F4C00050F08BF90EA020F05D054EA000C04BF2D
:102F5C001946104630BD91EA030F1EBF0021002018
:102F6C0030BD5FEA545C05D14000494128BF41F0B7
:102F7C00004130BD14F580043CBF01F5801130BD1B
:102F8C0001F0004545F0FE4141F470014FF00000A6
:102F9C0030BD7FEA645C1ABF194610467FEA655C57
:102FAC001CBF0B46024650EA013406BF52EA0335F9
:102FBC0091EA030F41F4002130BD00BF90F0000FE7
:102FCC0004BF0021704730B54FF4806404F1320423
:102FDC004FF000054FF0000150E700BF90F0000FDC
:102FEC0004BF0021704730B54FF4806404F1320403
:102FFC0010F0004548BF40424FF000013EE700BFD3
:10300C0042004FEAE2014FEA31014FEA02701FBF62
:10301C0012F07F4393F07F4F81F06051704792F034
:10302C00000F14BF93F07F4F704730B54FF46074AE
:10303C0001F0004521F0004120E700BF50EA0102F9
:10304C0008BF704730B54FF000050AE050EA0102A6
:10305C0008BF704730B511F0004502D5404261EB16
:10306C0041014FF4806404F132045FEA915C3FF457
:10307C00DCAE4FF003025FEADC0C18BF03325FEAF0
:10308C00DC0C18BF033202EBDC02C2F1200300FAA5
:10309C0003FC20FA02F001FA03FE40EA0E0021FACA
:1030AC0002F11444C1E600BF70B54FF0FF0C4CF4B4
:1030BC00E06C1CEA11541DBF1CEA135594EA0C0F6A
:1030CC0095EA0C0F00F0DEF82C4481EA030621EAA5
:1030DC004C5123EA4C5350EA013518BF52EA0335E0
:1030EC0041F4801143F4801338D0A0FB02CE4FF092
:1030FC000005E1FB02E506F00042E0FB03E54FF0C2
:10310C000006E1FB03569CF0000F18BF4EF0010EB9
:10311C00A4F1FF04B6F5007F64F5407404D25FEAB5
:10312C004E0E6D4146EB060642EAC62141EA555168
:10313C004FEAC52040EA5E504FEACE2EB4F1FD0CAA
:10314C0088BFBCF5E06F1ED8BEF1004F08BF5FEA28
:10315C00500E50F1000041EB045170BD06F00046DA
:10316C0046EA010140EA020081EA0301B4EB5C0487
:10317C00C2BFD4EB0C0541EA045170BD41F480117F
:10318C004FF0000E013C00F3AB8014F1360FDEBFA4
:10319C00002001F0004170BDC4F10004203C35DA80
:1031AC000C341BDC04F11404C4F1200500FA05F303
:1031BC0020FA04F001FA05F240EA020001F00042A4
:1031CC0021F0004110EBD37021FA04F642EB06011A
:1031DC005EEA430E08BF20EAD37070BDC4F10C0444
:1031EC00C4F1200500FA04F320FA05F001FA04F208
:1031FC0040EA020001F0004110EBD37041F10001F4
:10320C005EEA430E08BF20EAD37070BDC4F12005FE
:10321C0000FA05F24EEA020E20FA04F301FA05F266
:10322C0043EA020321FA04F001F0004121FA04F20E
:10323C0020EA020000EBD3705EEA430E08BF20EADE
:10324C00D37070BD94F0000F0FD101F00046400018
:10325C0041EB010111F4801F08BF013CF7D041EA9A
:10326C00060195F0000F18BF704703F0004652009E
:10327C0043EB030313F4801F08BF013DF7D043EA6F
:10328C000603704794EA0C0F0CEA135518BF95EA25
:10329C000C0F0CD050EA410618BF52EA4306D1D1AC
:1032AC0081EA030101F000414FF0000070BD50EACB
:1032BC00410606BF1046194652EA430619D094EA55
:1032CC000C0F02D150EA013613D195EA0C0F05D13F
:1032DC0052EA03361CBF104619460AD181EA030193
:1032EC0001F0004141F0FE4141F470014FF000004B
:1032FC0070BD41F0FE4141F4780170BD70B54FF0E6
:10330C00FF0C4CF4E06C1CEA11541DBF1CEA135565
:10331C0094EA0C0F95EA0C0F00F0A7F8A4EB050447
:10332C0081EA030E52EA03354FEA013100F088803E
:10333C004FEA03334FF0805545EA131343EA126307
:10334C004FEA022245EA111545EA10654FEA0026BC
:10335C000EF000419D4208BF964244F1FD0404F575
:10336C00407402D25B084FEA3202B61A65EB0305D1
:10337C005B084FEA32024FF480104FF4002CB6EB8E
:10338C00020E75EB030E22BFB61A754640EA0C000E
:10339C005B084FEA3202B6EB020E75EB030E22BF4E
:1033AC00B61A754640EA5C005B084FEA3202B6EB8F
:1033BC00020E75EB030E22BFB61A754640EA9C004E
:1033CC005B084FEA3202B6EB020E75EB030E22BF1E
:1033DC00B61A754640EADC0055EA060E18D04FEADC
:1033EC00051545EA16754FEA06164FEAC30343EA7C
:1033FC0052734FEAC2025FEA1C1CC0D111F4801F49
:10340C000BD141EA00014FF000004FF0004CB6E741
:10341C0011F4801F04BF01430020B4F1FD0C88BFE0
:10342C00BCF5E06F3FF6AFAEB5EB030C04BFB6EBEB
:10343C00020C5FEA500C50F1000041EB045170BDDE
:10344C000EF0004E4EEA113114EB5C04C2BFD4EB0B
:10345C000C0541EA045170BD41F480114FF0000E8F
:10346C00013C90E645EA060E8DE60CEA135594EA0B
:10347C000C0F08BF95EA0C0F3FF43BAF94EA0C0F0E
:10348C000AD150EA01347FF434AF95EA0C0F7FF483
:10349C0025AF104619462CE795EA0C0F06D152EAD7
:1034AC0003353FF4FDAE1046194622E750EA4106BB
:1034BC0018BF52EA43067FF4C5AE50EA41047FF4CC
:1034CC000DAF52EA43057FF4EBAE12E74FEA41022F
:1034DC0012F5001215D211D56FF47873B3EB62525A
:1034EC0012D94FEAC12343F0004343EA505311F081
:1034FC00004F23FA02F018BF404270474FF0000013
:10350C00704750EA013005D111F0004008BF6FF050
:10351C00004070474FF00000704700BF10B5054CDD
:10352C0013462CB10A4601460220AFF3008010BDB1
:10353C00204610BD0000000010B5431E0A44914205
:10354C0004D011F8014B03F8014FF8E710BD034606
:10355C000244934202D003F8011BFAE770470000C3
:10356C0038B5124B05461C68A36BD3B91820FEF76F
:10357C0081FD43F20E33A06303804AF6CD334380C2
:10358C0041F2342383804EF26D63C3804DF6EC63BD
:10359C000381052343810B23838101220023C0E98E
:1035AC000423A36B00221D615A6138BD6400002006
:1035BC00194B10B51C68A36BD3B91820FEF75AFD34
:1035CC0043F20E33A06303804AF6CD33438041F2BD
:1035DC00342383804EF26D63C3804DF6EC6303811C
:1035EC00052343810B23838101220023C0E904239B
:1035FC00A16B0A4C0B6948695C43094A02FB004009
:10360C00A3FB02230132034443F10003C1E9042369
:10361C0023F0004010BD00BF640000202DF4515871
:10362C002D7F954C034613F8012B002AFBD1181A59
:10363C00013870471D000A085D000A0889000A0855
:10364C008D000A08000000002C010000180000008A
:10365C00F40100002C010000500000006261756450
:10366C000053657269616C00555342536572696110
:10367C006C31007479706500706172616D00636DFE
:10368C006400696400686E64007374726D0066692E
:10369C006C74006C766C0061646448616E646C657B
:1036AC00720072656D6F766548616E646C65720050
:1036BC00656E756D48616E646C657273004A534F2C
:1036CC004E53747265616D4C6F6748616E646C65C6
:1036DC00720061707000253031307520005D200063
:1036EC002564002C200028293A2000205B00636F01
:1036FC006465203D200025690064657461696C7304
:10370C00203D20000D0A0066006C6E00666E0063A2
:10371C006F64650064657461696C006E6F6E650042
:10372C00747261636500696E666F007761726E001A
:10373C006572726F720070616E696300616C6C000F
:10374C005A00252B3033643A253032750025592D1B
:10375C00256D2D25645425483A254D3A2553257A57
:10376C000061736374696D65000000000000000067
:10377C000000000045230A0835230A0837230A08ED
:10378C00000000000000000001240A0851240A086F
:10379C005F240A08FD200A083D240A0803240A08AD
:1037AC0019240A084B240A082F240A08FD230A08A6
:1037BC00000000000000000099250A08E9250A080D
:1037CC00F7250A08FD200A08AD250A08CF250A08A6
:1037DC00BB250A08E3250A089B250A089F250A0829
:1037EC0000000000000000009D260A08E7260A08D9
:1037FC00BF260A089F260A08C7260A08CF260A08E9
:10380C00D7260A08DF260A08000000000000000086
:10381C00CD270A08C3270A08B9270A0837270A0838
:10382C008D210A08AD270A08A1270A0899270A083A
:10383C008F270A0885270A0841270A08000000007C
:10384C0000000000ED270A08F7270A0801280A08DB
:10385C000B280A0815280A0821280A082D280A0806
:10386C0039280A0841280A084B280A0855280A084A
:10387C00000000000000000000000000000000003C
:10388C00000000000000000000000000000000002C
:10389C00000000000000000000000000000000001C
:1038AC00000000000000000000000000000000000C
:1038BC0000000000000000000000000000000000FC
:1038CC0000000000000000000000000000000000EC
:1038DC0000000000430000004D0A0A08411D0A08C0
:1038EC00C9200A0899210A08A9210A08E1210A0815
:1038FC00D9270A08A5280A08C1290A08B52A0A08DE
:10390C00392B0A08FD2B0A08C12C0A0800000000FC
:04391C0000000000A7
:0439200000000000A3
:103924006D370A080000000080380A08A0380A0829
:10393400C0380A0800000000000000000000000079
:1039440000000000E0380A08000000000000000049
:103954000000000000000000000000000000000063
:103964000000000000000000000000000000000053
:103974000000000000000000000000000000000043
:08398400000000000400002017
:10398C00FFFFFFFF00000102030405060708090AF8
:10399C000B0C0D0E0F101112131415161718191AF3
:0839AC001B1C1D1E1F2028003A
:0439B40078563412FB
:04000005080A001CC9
:00000001FF
