:02000004080AE8
:1000000000000A08A4280A080000060006000501EE
:080010000402E80500000000F5
:0400180034250A0879
:10001C0009480A4908B5884205D0094A824202D0EB
:10002C00121A02F03DFA0748074A0021121A02F090
:10003C0042FA064808BD00BF0000002014280A0838
:10004C006800002068000020140A0020140A002018
:10005C0070B501F003FD074B074C1E46E41AA408CB
:10006C000025A54204D056F8253098470135F8E70D
:10007C0070BD00BFD8270A080C280A0800F01AB86F
:10008C0008B500F0A9F8BDE8084001F0A9BC01F0E2
:10009C00C1BB0078B0FA80F04009704701230370AF
:1000AC00704710B50446006808B101F0B3FB204658
:1000BC0010BD000010B5104800F0F4F80E4800F028
:1000CC0027F9002319460D4A42F823100133B3F5E2
:1000DC00807F0A4CF8D10A4A6420136001F02EFC90
:1000EC00084B6FF446722366074B6366A3F57833AF
:1000FC001344A36610BD00BF7004002070000020E4
:10010C006C000020C0C7CD4A18AE9E3BF7B52D4DF4
:10011C0000232D4E2D4F2B602968FF294CDC10231A
:10012C0091FBF3F313F0010F56F821C04FF47A70E2
:10013C0016D19CFBF0F49CFBF7F294FBF0F392FBD2
:10014C00F0FE00FB134300FB1E2200FB14C0C0B2E8
:10015C000090DBB2D2B289B21D4801F093F927E0CE
:10016C009CFBF0F29CFBF7F492FBF0F300FB1323E7
:10017C0094FBF0F200FB1242164C01F10F0E0C40F6
:10018C00002CBCBF04F1FF3464F00F044FF47A7000
:10019C00B8BF0134AEEB44019CFBF0FE00FB1EC06B
:1001AC00C0B20090DBB2D2B289B2094801F06AF950
:1001BC002B6801332B60AFE7054803B0BDE8F04076
:1001CC0000F0A6B86C0000207000002040420F0028
:1001DC00700400200F00008008B50448FFF796FF5C
:1001EC00BDE8084041F2883001F0A8BB7000002047
:1001FC0038B5114C114D01F07FF902230C224FF44C
:10020C008071204600F073F82A460D4920460D4CAB
:10021C0001F0CEFF00232360A380A37123814FF64E
:10022C00FF730120638101F071FA2A462046BDE874
:10023C003840054901F0BCBF700400206800002064
:10024C005D020A0884040020AF000A0801F08CB992
:10025C0010B50446C06808B101F0DCFA23781BB174
:10026C000021E07901F022FF204610BD38B504468C
:10027C00C0680D4608B101F0CDFAA379062B0CBF6E
:10028C0004200320684380B2A08001F0BBFAE06038
:10029C0028B1A288002102F00EF9658038BDA0803B
:1002AC00608038BD10B504460121C07901F0FEFE16
:1002BC000021E07901F00BFF0123237010BD38B54C
:1002CC00037805460C461BB10021C07901F0EEFE07
:1002DC002B78EC7153B1A4B22046012101F0E6FE5B
:1002EC002046BDE83840002101F0F1BE38BD70B5A4
:1002FC00044616460025837105700572C5600561BC
:10030C00FFF7B4FF20463146FFF7D9FF204670BDFA
:10031C00C368002B00F08E852DE9F04104468379EB
:10032C0086B0023BDBB2042B96BF294A322552F829
:10033C002350FFF78BFF2369C01AA842F9D372B67A
:10034C00A179A3880229ADF80A30D4F80CE000F0AA
:10035C007282072900F06F82062900F03284052989
:10036C0000F0AB83082900F0A883002940F06385D6
:10037C00184A4FF40006BDF80A309BB2002B00F06F
:10038C0095830496BDF80A300EF10305033B9BB22E
:10039C00ADF80A309EF80030DBB28DF807309EF8CD
:1003AC000130DBB28DF806309EF80230DBB28DF8EE
:1003BC0008309DF807709DF806309DF808001B0268
:1003CC0043EA0743034303938DF805101BE100BF79
:1003DC0048250A0890040020004600BF00BF00BF5B
:1003EC0000BF00BF00BF00BF00BF00BF00BF00BF09
:1003FC0000BF00BF00BF00BF00BF00BF00BF00BFF9
:10040C0000BF00BF00BF00BF00BF00BF00BF00BFE8
:10041C0000BF00BF00BF00BF00BF00BF00BF00BFD8
:10042C0000BF00BF00BF00BF00BF00BF00BF00BFC8
:10043C0000BF00BF00BF00BF00BF00BF00BF00BFB8
:10044C0000BF00BF00BF00BF00BF00BF00BF00BFA8
:10045C0000BF00BF00BF00BF00BF00BF00BF00BF98
:10046C0000BF00BF00BF00BF00BF00BF00BF00BF88
:10047C0000BF00BF00BF00BF00BF00BF00BF00BF78
:10048C0000BF00BF00BF00BF00BF00BF00BF00BF68
:10049C0000BF00BF00BF00BF00BF00BF00BF00BF58
:1004AC0000BF00BF00BF00BF00BF00BF00BF00BF48
:1004BC0000BF00BF00BF00BF00BF00BF00BF00BF38
:1004CC0000BF00BF00BF00BF00BF00BF00BF00BF28
:1004DC0000BF00BF00BF00BF00BF00BF00BF00BF18
:1004EC00E3791068C3EBC30300EB8307BF8850F8B4
:1004FC0023305F83004600BF00BF00BF00BF00BFBA
:10050C0000BF00BF00BF00BF00BF00BF00BF00BFE7
:10051C0000BF00BF00BF00BF00BF00BF00BF00BFD7
:10052C0000BF00BF00BF00BF00BF00BF00BF00BFC7
:10053C0000BF00BF00BF00BF00BF00BF00BF00BFB7
:10054C0000BF00BF00BF00BF00BF00BF00BF00BFA7
:10055C0000BF00BF00BF00BF00BF00BF00BF00BF97
:10056C0000BF00BF00BF00BF00BF00BF00BF00BF87
:10057C0000BF00BF00BF00BF00BF00BF00BF00BF77
:10058C0000BF00BF00BF00BF00BF00BF00BF00BF67
:10059C0000BF00BF00BF00BF00BF00BF00BF00BF57
:1005AC0000BF00BF00BF00BF00BF00BF00BF00BF47
:1005BC0000BF00BF00BF00BF00BF00BF00BF00BF37
:1005CC0000BF00BF00BF00BF00BF00BF00BF00BF27
:1005DC0000BF00BF00BF00BF00BF00BF00BF00BF17
:1005EC0000BF00BF00BF00BF00BF00BF00BF049B27
:1005FC005B0804939DF805300133DBB2172B8DF8A3
:10060C00053000F2DB82E3791068C3EBC30300EB27
:10061C008307BF8850F823301F830398049B18422C
:10062C007FF4DAAE004600BF00BF00BF00BF00BFC2
:10063C0000BF00BF00BF00BF00BF00BF00BF00BFB6
:10064C0000BF00BF00BF00BF00BF00BF00BF00BFA6
:10065C0000BF00BF00BF00BF00BF00BF00BF00BF96
:10066C0000BF00BF00BF00BF00BF00BF00BF00BF86
:10067C0000BF00BF00BFE3791068C3EBC30300EBFE
:10068C008307BF8850F823305F83004600BF00BF4C
:10069C0000BF00BF00BF00BF00BF00BF00BF00BF56
:1006AC0000BF00BF00BF00BF00BF00BF00BF00BF46
:1006BC0000BF00BF00BF00BF00BF00BF00BF00BF36
:1006CC0000BF00BF00BF00BF00BF00BF00BF00BF26
:1006DC0000BF00BF00BF00BF00BF00BF00BF00BF16
:1006EC0000BF00BF00BF00BF00BF00BF00BF00BF06
:1006FC0000BF00BF00BF00BF00BF00BF00BF00BFF6
:10070C0000BF00BF00BF00BF00BF00BF00BF00BFE5
:10071C0000BF00BF00BF00BF00BF00BF00BF00BFD5
:10072C0000BF00BF00BF00BF00BF00BF00BF00BFC5
:10073C0000BF00BF00BF00BF00BF00BF00BF00BFB5
:10074C0000BF00BF00BF00BF00BF00BF00BF00BFA5
:10075C0000BF00BF00BF00BF00BF00BF00BF00BF95
:10076C0000BF00BF00BF00BF00BF00BF00BF00BF85
:10077C0000BF00BF00BF00BF00BF00BF00BF00BF75
:10078C0000BF00BF00BF00BF00BF00BF00BF00BF65
:10079C0000BF00BF00BF00BF00BF00BF00BF00BF55
:1007AC0000BF00BF00BF00BF00BF00BF00BF00BF45
:1007BC0000BF00BF00BF00BF00BF00BF00BF00BF35
:1007CC0000BF00BF00BF00BF00BF00BF00BF00BF25
:1007DC0000BF00BF00BF00BF00BF00BF00BF00BF15
:1007EC0000BF00BF00BF00BF00BF00BF00BF00BF05
:1007FC0000BF00BF00BF00BF00BF00BF00BF00BFF5
:10080C0000BF00BF00BF00BF00BF00BF00BF00BFE4
:10081C0000BF00BF00BF00BF00BF00BF00BF00BFD4
:10082C0000BF00BF00BF00BF00BF00BF00BF00BFC4
:10083C0000BF00BFDBE6BDF80A30174A9BB24FF48D
:10084C0000050026002B00F031810495BDF80A301C
:10085C000EF10301033B9BB2ADF80A309EF8003059
:10086C00DBB28DF806309EF80130DBB28DF8073024
:10087C009EF80230DBB28DF808309DF806309DF8FA
:10088C0007009DF80870000240EA03433B430393C2
:10089C008DF8056080E000BF90040020004600BF8A
:1008AC0000BF00BF00BF00BF00BF00BF00BF00BF44
:1008BC0000BF00BF00BF00BF00BF00BF00BF00BF34
:1008CC0000BF00BF00BF00BF00BF00BF00BF00BF24
:1008DC0000BF00BF00BF00BF00BF00BF00BF00BF14
:1008EC0000BF00BF00BF00BF00BF00BF00BF00BF04
:1008FC0000BF00BF00BF00BF00BF00BF00BF00BFF4
:10090C0000BF00BF00BF00BF00BF00BF00BF00BFE3
:10091C0000BF00BF00BF00BF00BF00BF00BF00BFD3
:10092C0000BF00BF00BF00BF00BF00BF00BF00BFC3
:10093C0000BF00BF00BFE3791068C3EBC30300EB3B
:10094C008307BF8850F823305F83004600BF00BF89
:10095C0000BF00BF00BF00BF00BF00BF00BF00BF93
:10096C0000BF00BF00BF00BF00BF00BF00BF00BF83
:10097C0000BF00BF00BF00BF00BF00BF00BF00BF73
:10098C00049B5B0804939DF805300133DBB2172BF5
:10099C008DF8053000F28380E3791068C3EBC30354
:1009AC0000EB8307BF8850F823301F830398049B08
:1009BC0018427FF473AF004600BF00BF00BF00BFFA
:1009CC0000BF00BF00BF00BF00BF00BF00BF00BF23
:1009DC0000BF00BF00BF00BF00BF00BF00BFE37976
:1009EC001068C3EBC30300EB8307BF8850F82330B8
:1009FC005F83004600BF00BF00BF00BF00BF00BF49
:100A0C0000BF00BF00BF00BF00BF00BF00BF00BFE2
:100A1C0000BF00BF00BF00BF00BF00BF00BF00BFD2
:100A2C0000BF00BF00BF00BF00BF00BF00BF00BFC2
:100A3C0000BF00BF00BF00BF00BF00BF00BF00BFB2
:100A4C0000BF00BF00BF00BF00BF00BF00BF00BFA2
:100A5C0000BF00BF00BF00BF00BF00BF00BF00BF92
:100A6C0000BF00BF00BF00BF00BF00BF00BF00BF82
:100A7C0000BF00BF00BF00BF00BF00BF00BF00BF72
:100A8C0000BF00BF00BF00BF00BF00BF00BF00BF62
:100A9C0000BF00BF00BF00BF00BF00BF70E7BDF8C4
:100AAC000A308E469BB2002B7FF4CFAE62B6FFF7B6
:100ABC00CDFB206106B0BDE8F0815E4B5E4A184666
:100ACC0011684FF400080027BDF80A2092B2002AE2
:100ADC00ECD0CDF81080BDF80A200EF10305033AD6
:100AEC0092B2ADF80A209EF80020D2B28DF8062002
:100AFC009EF80120D2B28DF807209EF80220D2B2C7
:100B0C008DF808209DF806209DF807E09DF808C098
:100B1C004FEA0E2E4EEA024242EA0C0203928DF884
:100B2C000570E2795E68C2EBC20201EB820EBEF880
:100B3C0004E051F822200596A2F818E0039E049ACE
:100B4C00164223D05A68059E921B4F2AFAD9E27995
:100B5C00C2EBC20201EB820EBEF804E051F8222077
:100B6C00A2F81AE0426805925A68059E921B072A61
:100B7C00FAD9049A520804929DF805200132D2B297
:100B8C00172A8DF80520CCD9AE469DE75A68059EEC
:100B9C00921B182AFAD9E279C2EBC20201EB820E3F
:100BAC00BEF804E051F82220A2F81AE0426805923F
:100BBC005A68059E921B452AFAD9DAE7AE46FFF72A
:100BCC00DABB1D4A4FF000450026BDF80A309BB237
:100BDC00002B3FF46BAF0495BDF80A300EF1040105
:100BEC00043B9BB2ADF80A309EF80030DBB28DF8B6
:100BFC0007309EF80130DBB28DF806309EF80230DB
:100C0C00DBB28DF808309EF80330DBB28DF809307A
:100C1C009DF807309DF806709DF808E03F049DF89C
:100C2C00090047EA0363034343EA0E2303938DF859
:100C3C0005607EE0001000E090040020004600BF3C
:100C4C0000BF00BF00BF00BF00BF00BF00BF00BFA0
:100C5C0000BF00BF00BF00BF00BF00BF00BF00BF90
:100C6C0000BF00BF00BF00BF00BF00BF00BF00BF80
:100C7C0000BF00BF00BF00BF00BF00BF00BF00BF70
:100C8C0000BF00BF00BF00BF00BF00BF00BF00BF60
:100C9C0000BF00BF00BF00BF00BF00BF00BF00BF50
:100CAC0000BF00BF00BF00BF00BFE3791068C3EBFB
:100CBC00C30300EB8307BF8850F823305F830046E3
:100CCC0000BF00BF00BF00BF00BF00BF00BF00BF20
:100CDC0000BF00BF00BF00BF00BF00BF00BF00BF10
:100CEC0000BF00BF00BF00BF00BF00BF00BF00BF00
:100CFC0000BF00BF00BF00BF00BF00BF00BF00BFF0
:100D0C0000BF00BF00BF00BF00BF00BF00BF00BFDF
:100D1C0000BF00BF00BF00BF00BF00BF049B5B084B
:100D2C0004939DF805300133DBB21F2B8DF8053091
:100D3C007ED8E3791068C3EBC30300EB8307BF884D
:100D4C0050F823301F830398049B18427FF476AF2E
:100D5C00004600BF00BF00BF00BF00BF00BF00BF08
:100D6C0000BF00BF00BF00BF00BF00BF00BF00BF7F
:100D7C0000BF00BF00BF00BFE3791068C3EBC30323
:100D8C0000EB8307BF8850F823305F83004600BF19
:100D9C0000BF00BF00BF00BF00BF00BF00BF00BF4F
:100DAC0000BF00BF00BF00BF00BF00BF00BF00BF3F
:100DBC0000BF00BF00BF00BF00BF00BF00BF00BF2F
:100DCC0000BF00BF00BF00BF00BF00BF00BF00BF1F
:100DDC0000BF00BF00BF00BF00BF00BF00BF00BF0F
:100DEC0000BF00BF00BF00BF00BF00BF00BF00BFFF
:100DFC0000BF00BF00BF00BF00BF00BF00BF00BFEF
:100E0C0000BF00BF00BF00BF00BF00BF00BF00BFDE
:100E1C0000BF00BF00BF00BF00BF00BF00BF00BFCE
:100E2C0000BF00BF00BF00BF00BF00BF00BF75E721
:100E3C008E46CAE67047032900F02E811E4A4FF4F5
:100E4C0000050026BDF80A309BB2002B3FF42EAEF5
:100E5C000495BDF80A30E079033B9BB2ADF80A303B
:100E6C009EF800300EF10301DBB28DF807309EF8CE
:100E7C000130C0EBC000DBB28DF808309EF80230B8
:100E8C00D2F800E0DBB28DF806309DF807709DF8C3
:100E9C0008300EEB800C1B0243EA07439DF80670EA
:100EAC00BCF804C05EF820003B4303938DF805604A
:100EBC00A0F81AC07DE000BF90040020049B5B08E2
:100ECC000493004600BF00BF00BF00BF00BF00BFBF
:100EDC0000BF00BF00BF00BF00BF00BF00BF00BF0E
:100EEC0000BF00BF00BF00BF00BF00BF00BF00BFFE
:100EFC0000BF00BF00BF00BF00BF00BF00BF00BFEE
:100F0C0000BF00BF00BF00BF00BF00BF00BF00BFDD
:100F1C0000BF00BF00BF00BF00BF00BF00BF00BFCD
:100F2C0000BF00BF00BF00BF00BF00BF00BF00BFBD
:100F3C0000BF00BF00BF00BF00BF00BF00BF00BFAD
:100F4C0000BF00BF00BF00BFE07917689DF80530F7
:100F5C00C0EBC00007EB800EBEF804E057F8200091
:100F6C000133DBB28DF80530A0F818E0004600BF65
:100F7C0000BF00BF00BF00BF00BF00BF00BF00BF6D
:100F8C0000BF00BF00BF00BF00BF00BF00BF00BF5D
:100F9C0000BF00BF00BF9DF80530182B7AD0E37955
:100FAC001068C3EBC30300EB8307BF8850F82330F2
:100FBC005F830398049B184280D1004600BF00BF9A
:100FCC0000BF00BF00BF00BF00BF00BF00BF00BF1D
:100FDC0000BF00BF00BF00BF00BF00BFE3791068B7
:100FEC00C3EBC30300EB8307BF8850F823301F8388
:100FFC009DF805300133DBB28DF80530049B5B089E
:10100C000493004600BF00BF00BF00BF00BF00BF7D
:10101C0000BF00BF00BF00BF00BF00BF00BF00BFCC
:10102C0000BF00BF00BF00BF00BF00BF00BF00BFBC
:10103C0000BF00BF00BF00BF00BF00BF00BF00BFAC
:10104C0000BF00BF00BF00BF00BF00BF00BF00BF9C
:10105C0000BF00BF00BF00BF00BF00BF00BF00BF8C
:10106C0000BF00BF00BF00BF00BF00BF00BF00BF7C
:10107C0000BF00BF00BF00BF00BF00BF00BF00BF6C
:10108C0000BF00BF00BF00BF00BF00BF9DF8053010
:10109C00182B84D18E46D5E6174A4FF4000500264E
:1010AC00BDF80A309BB2002B3FF400AD0495BDF89F
:1010BC000A300EF10301033B9BB2ADF80A309EF8E7
:1010CC000030DBB28DF807309EF80130DBB28DF8C2
:1010DC0006309EF80230DBB28DF808309DF80770B0
:1010EC009DF806309DF808001B0243EA07430343B2
:1010FC0003938DF80560E0E090040020004600BFEB
:10110C0000BF00BF00BF00BF00BF00BF00BF00BFDB
:10111C0000BF00BF00BF00BF00BF00BF00BF00BFCB
:10112C0000BF00BF00BF00BF00BF00BF00BF00BFBB
:10113C0000BF00BF00BF00BF00BF00BF00BF00BFAB
:10114C0000BF00BF00BF00BF00BF00BF00BF00BF9B
:10115C0000BF00BF00BF00BF00BF00BF00BF00BF8B
:10116C0000BF00BF00BF00BF00BF00BF00BF00BF7B
:10117C0000BF00BF00BF00BF00BF00BF00BF00BF6B
:10118C0000BF00BF00BF00BF00BF00BF00BF00BF5B
:10119C0000BF00BF00BF00BF00BF00BF00BF00BF4B
:1011AC0000BF00BF00BF00BF00BF00BF00BF00BF3B
:1011BC0000BF00BF00BF00BF00BF00BF00BF00BF2B
:1011CC0000BF00BF00BF00BF00BF00BF00BF00BF1B
:1011DC0000BF00BF00BF00BF00BF00BF00BF00BF0B
:1011EC0000BF00BF00BF00BF00BF00BF00BF00BFFB
:1011FC0000BF00BF00BF00BF00BF00BF00BF00BFEB
:10120C0000BF00BF00BF00BF00BF00BF00BF00BFDA
:10121C0000BF00BF00BF00BF00BF00BF00BFE3792D
:10122C001068C3EBC30300EB8307BF8850F823306F
:10123C005F83004600BF00BF00BF00BF00BF00BF00
:10124C0000BF00BF00BF00BF00BF00BF00BF00BF9A
:10125C0000BF00BF00BF00BF00BF00BF00BF00BF8A
:10126C0000BF00BF00BF00BF00BF00BF00BF00BF7A
:10127C0000BF00BF00BF00BF00BF00BF00BF00BF6A
:10128C0000BF00BF00BF00BF00BF00BF00BF00BF5A
:10129C0000BF00BF00BF00BF00BF00BF00BF00BF4A
:1012AC0000BF049B5B0804939DF805300133DBB24F
:1012BC00172B8DF8053000F2E380E3791068C3EB4F
:1012CC00C30300EB8307BF8850F823301F830398B8
:1012DC00049B18427FF412AF004600BF00BF00BF52
:1012EC0000BF00BF00BF00BF00BF00BF00BF00BFFA
:1012FC0000BF00BF00BF00BF00BF00BF00BF00BFEA
:10130C0000BF00BF00BF00BF00BF00BF00BF00BFD9
:10131C0000BF00BF00BF00BF00BF00BF00BF00BFC9
:10132C0000BF00BF00BF00BF00BF00BF00BF00BFB9
:10133C0000BF00BF00BF00BF00BF00BF00BF00BFA9
:10134C0000BF00BF00BF00BF00BF00BF00BF00BF99
:10135C0000BF00BF00BF00BF00BFE3791068C3EB44
:10136C00C30300EB8307BF8850F823305F8300462C
:10137C0000BF00BF00BF00BF00BF00BF00BF00BF69
:10138C0000BF00BF00BF00BF00BF00BF00BF00BF59
:10139C0000BF00BF00BF00BF00BF00BF00BF00BF49
:1013AC0000BF00BF00BF00BF00BF00BF00BF00BF39
:1013BC0000BF00BF00BF00BF00BF00BF00BF00BF29
:1013CC0000BF00BF00BF00BF00BF00BF00BF00BF19
:1013DC0000BF00BF00BF00BF00BF00BF00BF00BF09
:1013EC0000BF00BF00BF00BF00BF00BF00BF00BFF9
:1013FC0000BF00BF00BF00BF00BF00BF00BF00BFE9
:10140C0000BF00BF00BF00BF00BF00BF00BF00BFD8
:10141C0000BF00BF00BF00BF00BF00BF00BF00BFC8
:10142C0000BF00BF00BF00BF00BF00BF00BF00BFB8
:10143C0000BF00BF00BF00BF00BF00BF00BF00BFA8
:10144C0000BF00BF00BF00BF00BF00BF00BF00BF98
:10145C0000BF00BF00BF00BF00BF00BF00BF00BF88
:10146C0000BF00BF00BF00BF00BF00BF00BF00BF78
:10147C0000BF00BF00BF00BF00BF00BF00BF10E730
:10148C008E460DE6F0B544889DF814508C4227D951
:10149C00047A44B1624363436C43C2F30722C3F33F
:1014AC000723C4F307258779C66801EB4101082F90
:1014BC0006EB010411D80120B84010F4D27F08D1FA
:1014CC00C0060AD5FF2A08BFFE2272546570A370AD
:1014DC00F0BD73546270A570F0BD72546370A5704A
:1014EC00F0BD000008B500F007F800F005F8014B5E
:1014FC00186008BD9004002008B5024B1B681B68DF
:10150C00019308BDB001060808B5024B1B689B6827
:10151C00019308BDB001060808B5024B1B68DB68D7
:10152C00019308BDB001060808B5024B1B681B6986
:10153C00019308BDB001060808B5024B1B68DB69B6
:10154C00019308BDB401060808B5024B1B681B6A61
:10155C00019308BDB401060808B5024B1B685B6813
:10156C00019308BD9C01060808B5024B1B681B695A
:10157C00019308BD9C01060808B5024B1B685B690A
:10158C00019308BD9C01060808B5024B1B685B6CF7
:10159C00019308BDD001060808B5024B1B689B6C73
:1015AC00019308BDD001060808B5024B1B689B6966
:1015BC00019308BDC401060808B5024B1B685B6AA1
:1015CC00019308BDC401060808B5024B1B689B6A51
:1015DC00019308BDC401060808B5024B1B68DB6A01
:1015EC00019308BDC401060808B5024B1B681B6BB0
:1015FC00019308BDC401060808B5024B1B685B6B60
:10160C00019308BDC401060808B5024B1B689B6B0F
:10161C00019308BDC401060808B5024B1B681B6C7E
:10162C00019308BDC401060808B5024B1B681B6E6C
:10163C00019308BDAC01060808B5024B1B685B6E34
:10164C00019308BDAC01060808B5024B1B689B6EE4
:10165C00019308BDAC01060808B5024B1B68DB6E94
:10166C00019308BDAC01060808B5024B1B681B6F43
:10167C00019308BDAC01060808B5024B1B685B6FF3
:10168C00019308BDAC01060808B5034B1B68D3F8E1
:10169C008030019308BD0000AC01060808B5024B70
:1016AC001B681B68019308BDD801060808B5024BDE
:1016BC001B681B69019308BDD801060808B5024BCD
:1016CC001B685B69019308BDD801060808B5024B7D
:1016DC001B689B69019308BDD801060808B5024B2D
:1016EC001B68DB69019308BDD801060808B5024BDD
:1016FC001B681B6A019308BDD801060808B5024B8C
:10170C001B689B6C019308BDC001060808B5024B11
:10171C001B685B68019308BDA401060808B5024B61
:10172C001B685B69019308BDA401060808B5034B4F
:10173C001B68D3F89030019308BD0000A401060883
:10174C0008B5034B1B68D3F89C30019308BD00000F
:10175C00A401060808B5024B1B685B68019308BD21
:10176C00C801060808B5024B1B689B68019308BDAD
:10177C00C801060808B5024B1B68DB68019308BD5D
:10178C00C801060808B5024B1B681B69019308BD0C
:10179C00C801060808B5024B1B685B69019308BDBC
:1017AC00C801060808B5024B1B689B69019308BD6C
:1017BC00C801060808B5024B1B68DB69019308BD1C
:1017CC00C801060808B5024B1B681B6A019308BDCB
:1017DC00C801060808B5024B1B681B6B019308BDBA
:1017EC00C801060808B5024B1B685B6B019308BD6A
:1017FC00C801060808B5024B1B68DB6B019308BDDA
:10180C00CC01060808B5024B1B681B68019308BD88
:10181C00A001060808B5024B1B685B68019308BD64
:10182C00A001060870B504460E46002540F8085F76
:10183C00FFF7AAFE30462670FFF77EFE6560204655
:10184C0070BD0078FFF780BE4FF6FF7310B5084CE3
:10185C0000202060A080A07120816381FFF756FFDB
:10186C002046BDE81040034A034900F0A1BC00BF6C
:10187C009404002068000020AF000A08F8B5064662
:10188C000D468F180024BD420CD0336815F8011B8F
:10189C009B6830469847002801DB0444F3E7002C92
:1018AC0008BF04462046F8BD70B505460C460846F0
:1018BC0049B100F031FE2B68024621462846BDE8AE
:1018CC007040DB68184770BD03689B681847012A95
:1018DC0098BF0A2230B50B468BB000218DF824102E
:1018EC000DF12304B3FBF2F505FB1233DBB2092B2C
:1018FC0094BF30333733DBB2214604F801392B4621
:10190C00002DEFD1FFF7D0FF0BB030BD00231A46EE
:10191C0019464068FFF73EBF014A024B1A607047F8
:10192C00D2250A08A0040020024B1A68024B1A6048
:10193C00704700BF00000020A40400200021FFF726
:10194C00EDBE10B58368044613B1032201469847D7
:10195C00204610BD10B50446FFF7F3FF204610BD1E
:10196C00034800238360034A034900F021BC00BFF5
:10197C00A80400206800002061190A0808B5144B5F
:10198C0033B100F067F903681B699847002816DC2F
:10199C00104B33B100F01CFA03681B699847002800
:1019AC0010DC0D4B0BB1AFF300800C4B7BB100F096
:1019BC008DF903681B699847002806DC08BDAFF356
:1019CC000080E5E7AFF30080EBE7AFF3008008BDE4
:1019DC0000000000000000000000000000000000FB
:1019EC0008B5FFF7CBFFFFF7C7FD014B186008BD2B
:1019FC003C0900200248034A0349121A00F050BD6A
:101A0C00004002400440024010280A0807B5002399
:101A1C0000931A466FF07701FFF792FE03B05DF862
:101A2C0004FB000007B543880A2B08D0502B09D1C2
:101A3C00094B1B683BB103B05DF804EB1847FFF78B
:101A4C00E5FF06E0002300931A466FF07701FFF7DD
:101A5C0077FE03B05DF804FBB804002038B5104CD9
:101A6C00104D2368AB42104B0CBF012200221A70A0
:101A7C0002D0FFF7BFFF2560FFF76EFD044600F0B4
:101A8C0023FD0A4B13B12046AFF300800021074819
:101A9C00FFF7B0FEBDE8384000210548FFF746BE11
:101AAC00004002401E1C279ABC04002000000000CD
:101ABC00311A0A08704710B50446182100F086FB4D
:101ACC00204610BDF8B50F4600F10806051D002490
:101ADC0016F8011D0A223846FFF7F9FEAE420444FF
:101AEC0007D0002CF4D02E213846FFF7EDFE04442D
:101AFC00EEE72046F8BD000010B50446044B112259
:101B0C0040F8043B002100F0D6FC204610BD00BF7D
:101B1C0074260A080346074A10B543F8042B01F152
:101B2C00100251F8044B914243F8044BF9D10A7856
:101B3C001A7010BD74260A08024A41600260042221
:101B4C000275704774260A0810B59DF8084044EADF
:101B5C00032343EA024242EA016104234160037514
:101B6C0010BD000037B5044D05609DF81850009568
:101B7C00FFF7EAFF03B030BD74260A0841747047C2
:101B8C00704708B50021007CFFF7A0FD30EA20006B
:101B9C0028BF4FF0FF3008BD08B50121007CFFF7CE
:101BAC0095FD30EA200028BF4FF0FF3008BD08B586
:101BBC00007CFFF783FD20EAE07008BD08B5007CCF
:101BCC00FFF774FD20EAE07008BD007CFFF78EBDC6
:101BDC0010B50446142100F0F9FA204610BD38B5B2
:101BEC000446007C0D46FFF769FD002801DC607C93
:101BFC0028B12946207CFFF771FD20EAE07038BD42
:101C0C0010B50446002363604FF47A73A360054B50
:101C1C00084623600123217463741146FFF73EFDCF
:101C2C00204610BD88260A0810B50446142200214F
:101C3C0000F041FC054B20466360054BE36040F22D
:101C4C00011323818123238210BD00BF4505002091
:101C5C00C404002030B50E4D87B001A8FFF7E4FF97
:101C6C00296811F0010410D12846FEF712FA60B170
:101C7C0001AA21460748FFF7C3FF2846FEF70EFAD4
:101C8C00054A0649034800F093FA024807B030BDF4
:101C9C00C004002048060020680000208D1B0A08A4
:101CAC0010B504461422002100F005FC054B20461B
:101CBC006360054BE36040F201132381812323828F
:101CCC0010BD00BFF80600206006002010B50E4CB9
:101CDC0086B001A8FFF7E4FF2368DB0710D4204689
:101CEC00FEF7D7F960B101AA01210848FFF788FF78
:101CFC002046FEF7D3F9064A0649044800F058FA84
:101D0C00024806B010BD00BF5C060020E4060020AF
:101D1C00680000208D1B0A0870474174704708B595
:101D2C00007CFFF779FC20EAE07008BD08B5007C68
:101D3C00FFF74AFC20EAE07008BD08B5007CFFF70D
:101D4C0053FC30EA200028BF4FF0FF3008BD08B527
:101D5C00007CFFF741FC30EA200028BF4FF0FF3039
:101D6C0008BD007CFFF748BC10B50446142100F0F8
:101D7C002DFA204610BD70B5457C04460E4625B99B
:101D8C00007CFFF749FC002805DD3146207CBDE8CE
:101D9C007040FFF711BC284670BD000010B504461A
:101DAC0008461146002262604FF47A72A260054A1E
:101DBC0020742260012262741A46FFF7F5FB20465C
:101DCC0010BD00BFB8260A08007CFFF71DBC000040
:101DDC0038B50C4D296811F0010411D12846FEF7D5
:101DEC0058F968B1084A2146084B0948FFF7D6FF55
:101DFC002846FEF753F9074A0749054800F0D8F979
:101E0C00034838BD940800209808002010080020D2
:101E1C00FC07002068000020251D0A087047F8B553
:101E2C00064615460C468F18BC4206D0336814F88B
:101E3C00011B9B6830469847F6E72846F8BD002200
:101E4C00007CFFF7F1BB0021007CFFF7F5BB002104
:101E5C00007CFFF7F9BB0021007CFFF7FDBB0021E4
:101E6C00007CFFF701BC10B50446142100F0AEF95C
:101E7C00204610BD10B50446002363604FF47A73FE
:101E8C00A360044B2174084623601146FFF7FCFB4A
:101E9C00204610BDE8260A080021007CFFF7ECBBA9
:101EAC00002211464068FFF76DBCF0B5164689B0AC
:101EBC0011220F460446002103A800F0FCFA30461C
:101ECC0000F02AFB0025009581B27B6803AA3046FE
:101EDC00FFF714FC20B129462046FFF72DFE03E046
:101EEC0003A92046FFF716FE204609B0F0BD0022DC
:101EFC0011464068FFF766BC002211464068FFF7A8
:101F0C0071BC00224068FFF765BC002281F0010122
:101F1C004068FFF74FBC00231A4619464068FFF78C
:101F2C0041BC002211464068FFF71CBC0022022174
:101F3C004068FFF71FBC00231A464068FFF70ABC35
:101F4C00024B04225A60024A1A6070471C09002096
:101F5C0010270A0800231A464068FFF7FBBB002233
:101F6C0002214068FFF706BC002211464068FFF7CB
:101F7C00F9BB002211464068FFF704BC00231A4647
:101F8C0019464068FFF706BC00231A4619464068FC
:101F9C00FFF708BC002281F001014068FFF70ABC82
:101FAC0000224068FFF716BC002211464068FFF77C
:101FBC0019BC002211464068FFF704BC70B51646E8
:101FCC008EB0044608A8FFF797FD1122002103A844
:101FDC0000F071FA304600F09FFA00250A4B00958C
:101FEC0081B25B6803AA3046FFF788FB20B1294613
:101FFC002046FFF7A1FD03E003A92046FFF78AFD69
:10200C0020460EB070BD00BF1C090020024B034AD5
:10201C001A6000225A6070472409002044270A08DD
:10202C0010B50446806808B1FFF7B6FA204610BD1B
:10203C0070B51A4E0446316811F001050FD13046C7
:10204C00FEF727F858B129461548FFF7EBFB304649
:10205C00FEF724F8134A1449114800F0A9F8104867
:10206C00FFF7EFFB28B1A4F10D03022B01D80020E0
:10207C0070BD00F077F8FFF70FFF08B1012CF6D90F
:10208C00FFF7A6FEFFF7A0FE18B1A4F11203012B77
:10209C00EDD9172C8CBF0020012070BD2C0900201D
:1020AC0030090020680000202D200A08172838B5B8
:1020BC0004460D460AD8FF2908D0FFF7B9FF28B10E
:1020CC0029462046BDE83840FFF71EBA38BD38B562
:1020DC0004460D46FFF720FAFF2810D0062804D836
:1020EC004D2323FA00F0C30709D42046FFF7A0FFC5
:1020FC0028B129462046BDE83840FFF715BA38BD4F
:10210C0013B5084C00231A46194600932046FFF7D6
:10211C0029FD2046044A054902B0BDE8104000F0F4
:10212C0047B800BF4009002068000020C11A0A0807
:10213C0070B5044614252A46094E002100F0BBF95F
:10214C00258020253146A5602561284600F040F801
:10215C0031466060284600F03BF8E060204670BDD8
:10216C0070270A0830B50E4D87B0296811F00104AC
:10217C0013D12846FDF78DFF78B101A8FFF7D8FFE2
:10218C0001AA21460748FFF775FE2846FDF786FF92
:10219C00054A0649034800F00BF8024807B030BD69
:1021AC00580900205C09002068000020291E0A083C
:1021BC000B460146184600F065B90000024B186842
:1021CC00BFF35F8F704700BF70090020FDF75FBF42
:1021DC0000F000B810B5002814BF044601242046B6
:1021EC00FFF710FB20B9FFF7E9FF08B18047F6E7CE
:1021FC0010BD0000184B1A68D1075CBF01221A6091
:10220C00164B1A68D2075CBF01221A60144B1A686D
:10221C00D0075CBF01221A60124B1A68D1075CBF51
:10222C0001221A60104B1A68D2075CBF01221A6097
:10223C000E4B1A68D0075CBF01221A600C4B1A684F
:10224C00D1075CBF01221A600A4B1A68D2075CBF27
:10225C0001221A60704700BF900900208C090020F1
:10226C008809002084090020800900207C090020B6
:10227C007809002074090020244B1A68D0075CBF31
:10228C0001221A60224B1A68D1075CBF01221A6026
:10229C00204B1A68D2075CBF01221A601E4B1A68C9
:1022AC00D0075CBF01221A601C4B1A68D1075CBFB7
:1022BC0001221A601A4B1A68D2075CBF01221A60FD
:1022CC00184B1A68D0075CBF01221A60164B1A68AB
:1022DC00D1075CBF01221A60144B1A68D2075CBF8D
:1022EC0001221A60124B1A68D0075CBF01221A60D7
:1022FC00104B1A68D1075CBF01221A600E4B1A688A
:10230C00D2075CBF01221A60704700BFC0090020D1
:10231C00BC090020B8090020B4090020B009002035
:10232C00AC090020A8090020A4090020A009002065
:10233C009C0900209809002094090020244B1A685D
:10234C00D0075CBF01221A60224B1A68D1075CBF10
:10235C0001221A60204B1A68D2075CBF01221A6056
:10236C001E4B1A68D0075CBF01221A601C4B1A68FE
:10237C00D1075CBF01221A601A4B1A68D2075CBFE6
:10238C0001221A60184B1A68D0075CBF01221A6030
:10239C00164B1A68D1075CBF01221A60144B1A68DD
:1023AC00D2075CBF01221A60124B1A68D0075CBFBF
:1023BC0001221A60104B1A68D1075CBF01221A6007
:1023CC000E4B1A68D2075CBF01221A60704700BF1F
:1023DC00F0090020EC090020E8090020E4090020A5
:1023EC00E0090020DC090020D8090020D4090020D5
:1023FC00D0090020CC090020C8090020C409002005
:10240C00184B1A68D1075CBF01221A60164B1A6868
:10241C00D2075CBF01221A60144B1A68D0075CBF4C
:10242C0001221A60124B1A68D1075CBF01221A6094
:10243C00104B1A68D2075CBF01221A600E4B1A6847
:10244C00D0075CBF01221A600C4B1A68D1075CBF25
:10245C0001221A600A4B1A68D2075CBF01221A606B
:10246C00704700BF100A00200C0A0020080A002048
:10247C00040A0020000A0020FC090020F8090020B2
:10248C00F409002010B5054C13462CB10A46014640
:10249C000220AFF3008010BD204610BD00000000EC
:1024AC0010B5431E0A44914204D011F8014B03F8B5
:1024BC00014FF8E710BD03460244934202D003F8E3
:1024CC00011BFAE77047000038B5124B05461C6833
:1024DC00A36BD3B91820FFF795F943F20E33A06321
:1024EC0003804AF6CD33438041F2342383804EF28D
:1024FC006D63C3804DF6EC630381052343810B238D
:10250C00838101220023C0E90423A36B00221D61F7
:10251C005A6138BD64000020034613F8012B002AD1
:10252C00FBD1181A013870471D000A085D000A0813
:10253C0089000A088D000A08000000002C01000028
:10254C0018000000F40100002C01000050000000F5
:10255C00626175640053657269616C005553425336
:10256C00657269616C3100747970650070617261BB
:10257C006D00636D6400696400686E64007374724E
:10258C006D0066696C74006C766C00616464486103
:10259C006E646C65720072656D6F766548616E6411
:1025AC006C657200656E756D48616E646C657273F6
:1025BC00004A534F4E53747265616D4C6F6748619E
:1025CC006E646C657200617070002530313075205E
:1025DC00005D20002564002C200028293A200020D2
:1025EC005B00636F6465203D2000256900646574A1
:1025FC0061696C73203D20000D0A0066006C6E0052
:10260C00666E00636F64650064657461696C006E6E
:10261C006F6E6500747261636500696E666F00773A
:10262C0061726E006572726F720070616E69630028
:10263C00616C6C005A00252B3033643A25303275AE
:10264C000025592D256D2D25645425483A254D3AE4
:10265C002553257A0061736374696D650000000071
:10266C000000000000000000D11A0A08C11A0A0874
:10267C00C31A0A0800000000000000008D1B0A08A5
:10268C00DD1B0A08EB1B0A0889180A08C91B0A0873
:10269C008F1B0A08A51B0A08D71B0A08BB1B0A08B4
:1026AC00891B0A080000000000000000251D0A0814
:1026BC00751D0A08831D0A0889180A08391D0A089D
:1026CC005B1D0A08471D0A086F1D0A08271D0A080A
:1026DC002B1D0A080000000000000000291E0A083B
:1026EC00731E0A084B1E0A082B1E0A08531E0A08E2
:1026FC005B1E0A08631E0A086B1E0A080000000015
:10270C0000000000431F0A08391F0A082F1F0A087F
:10271C00AD1E0A0819190A08231F0A08171F0A08F0
:10272C000F1F0A08051F0A08FB1E0A08B71E0A0815
:10273C000000000000000000611F0A086B1F0A085F
:10274C00751F0A087F1F0A08891F0A08951F0A08A7
:10275C00A11F0A08AD1F0A08B51F0A08BF1F0A08E7
:10276C00C91F0A0800000000000000000000000063
:10277C00000000000000000000000000000000004D
:10278C00000000000000000000000000000000003D
:10279C00000000000000000000000000000000002D
:1027AC00000000000000000000000000000000001D
:1027BC00000000000000000000000000000000000D
:1027CC00000000000000000043000000FD010A08AA
:1027DC00F1140A0855180A0825190A0835190A08A7
:1027EC006D190A084D1F0A0819200A080D210A083C
:1027FC0001220A0885220A0849230A080D240A081E
:04280C0000000000C8
:0428100000000000C4
:1028140061260A080000000074270A0894270A08A1
:10282400B4270A08000000000000000000000000B7
:1028340000000000D4270A08000000000000000087
:102844000000000000000000000000000000000084
:102854000000000000000000000000000000000074
:102864000000000000000000000000000000000064
:08287400000000000400002038
:10287C00FFFFFFFF00000102030405060708090A19
:10288C000B0C0D0E0F101112131415161718191A14
:08289C001B1C1D1E1F2028005B
:0428A400785634121C
:04000005080A001CC9
:00000001FF
